{"contracts/DEX.sol":{"DEX":{"abi":[{"inputs":[{"internalType":"address","name":"_tokenA","type":"address"},{"internalType":"address","name":"_tokenB","type":"address"}],"stateMutability":"nonpayable","type":"constructor"},{"anonymous":false,"inputs":[{"indexed":true,"internalType":"address","name":"provider","type":"address"},{"indexed":false,"internalType":"uint256","name":"amountA","type":"uint256"},{"indexed":false,"internalType":"uint256","name":"amountB","type":"uint256"},{"indexed":false,"internalType":"uint256","name":"liquidityMinted","type":"uint256"}],"name":"LiquidityAdded","type":"event"},{"anonymous":false,"inputs":[{"indexed":true,"internalType":"address","name":"provider","type":"address"},{"indexed":false,"internalType":"uint256","name":"amountA","type":"uint256"},{"indexed":false,"internalType":"uint256","name":"amountB","type":"uint256"},{"indexed":false,"internalType":"uint256","name":"liquidityBurned","type":"uint256"}],"name":"LiquidityRemoved","type":"event"},{"anonymous":false,"inputs":[{"indexed":true,"internalType":"address","name":"trader","type":"address"},{"indexed":true,"internalType":"address","name":"tokenIn","type":"address"},{"indexed":true,"internalType":"address","name":"tokenOut","type":"address"},{"indexed":false,"internalType":"uint256","name":"amountIn","type":"uint256"},{"indexed":false,"internalType":"uint256","name":"amountOut","type":"uint256"}],"name":"Swap","type":"event"},{"inputs":[{"internalType":"uint256","name":"amountA","type":"uint256"},{"internalType":"uint256","name":"amountB","type":"uint256"}],"name":"addLiquidity","outputs":[{"internalType":"uint256","name":"liquidityMinted","type":"uint256"}],"stateMutability":"nonpayable","type":"function"},{"inputs":[{"internalType":"uint256","name":"amountIn","type":"uint256"},{"internalType":"uint256","name":"reserveIn","type":"uint256"},{"internalType":"uint256","name":"reserveOut","type":"uint256"}],"name":"getAmountOut","outputs":[{"internalType":"uint256","name":"amountOut","type":"uint256"}],"stateMutability":"pure","type":"function"},{"inputs":[],"name":"getPrice","outputs":[{"internalType":"uint256","name":"price","type":"uint256"}],"stateMutability":"view","type":"function"},{"inputs":[],"name":"getReserves","outputs":[{"internalType":"uint256","name":"","type":"uint256"},{"internalType":"uint256","name":"","type":"uint256"}],"stateMutability":"view","type":"function"},{"inputs":[{"internalType":"address","name":"","type":"address"}],"name":"liquidity","outputs":[{"internalType":"uint256","name":"","type":"uint256"}],"stateMutability":"view","type":"function"},{"inputs":[{"internalType":"uint256","name":"liquidityAmount","type":"uint256"}],"name":"removeLiquidity","outputs":[{"internalType":"uint256","name":"amountA","type":"uint256"},{"internalType":"uint256","name":"amountB","type":"uint256"}],"stateMutability":"nonpayable","type":"function"},{"inputs":[],"name":"reserveA","outputs":[{"internalType":"uint256","name":"","type":"uint256"}],"stateMutability":"view","type":"function"},{"inputs":[],"name":"reserveB","outputs":[{"internalType":"uint256","name":"","type":"uint256"}],"stateMutability":"view","type":"function"},{"inputs":[{"internalType":"uint256","name":"amountAIn","type":"uint256"}],"name":"swapAForB","outputs":[{"internalType":"uint256","name":"amountBOut","type":"uint256"}],"stateMutability":"nonpayable","type":"function"},{"inputs":[{"internalType":"uint256","name":"amountBIn","type":"uint256"}],"name":"swapBForA","outputs":[{"internalType":"uint256","name":"amountAOut","type":"uint256"}],"stateMutability":"nonpayable","type":"function"},{"inputs":[],"name":"tokenA","outputs":[{"internalType":"address","name":"","type":"address"}],"stateMutability":"view","type":"function"},{"inputs":[],"name":"tokenB","outputs":[{"internalType":"address","name":"","type":"address"}],"stateMutability":"view","type":"function"},{"inputs":[],"name":"totalLiquidity","outputs":[{"internalType":"uint256","name":"","type":"uint256"}],"stateMutability":"view","type":"function"}],"evm":{"bytecode":{"linkReferences":{},"object":"60806040523480156200001157600080fd5b5060405162002a9538038062002a95833981810160405281019062000037919062000388565b60016000819055506200005b67735b99c85f381aa760c01b6200031b60201b60201c565b620000776764aae7211ab6c09260c01b6200031b60201b60201c565b6200009367601e86057923728c60c01b6200031b60201b60201c565b620000af676f19f44f64dac67060c01b6200031b60201b60201c565b600073ffffffffffffffffffffffffffffffffffffffff168273ffffffffffffffffffffffffffffffffffffffff16141580156200011a5750600073ffffffffffffffffffffffffffffffffffffffff168173ffffffffffffffffffffffffffffffffffffffff1614155b6200015c576040517f08c379a0000000000000000000000000000000000000000000000000000000008152600401620001539062000430565b60405180910390fd5b6200017867b3b07e3689e90f9760c01b6200031b60201b60201c565b6200019467450e19efc4d7686160c01b6200031b60201b60201c565b620001b067b9321a3c512c60f560c01b6200031b60201b60201c565b620001cc67efe348eb2eee6de460c01b6200031b60201b60201c565b8073ffffffffffffffffffffffffffffffffffffffff168273ffffffffffffffffffffffffffffffffffffffff16036200023d576040517f08c379a00000000000000000000000000000000000000000000000000000000081526004016200023490620004a2565b60405180910390fd5b620002596716322f469713450e60c01b6200031b60201b60201c565b6200027567e2ea5a187084f88360c01b6200031b60201b60201c565b81600160006101000a81548173ffffffffffffffffffffffffffffffffffffffff021916908373ffffffffffffffffffffffffffffffffffffffff160217905550620002d2671065aefffecf03f160c01b6200031b60201b60201c565b80600260006101000a81548173ffffffffffffffffffffffffffffffffffffffff021916908373ffffffffffffffffffffffffffffffffffffffff1602179055505050620004c4565b50565b600080fd5b600073ffffffffffffffffffffffffffffffffffffffff82169050919050565b6000620003508262000323565b9050919050565b620003628162000343565b81146200036e57600080fd5b50565b600081519050620003828162000357565b92915050565b60008060408385031215620003a257620003a16200031e565b5b6000620003b28582860162000371565b9250506020620003c58582860162000371565b9150509250929050565b600082825260208201905092915050565b7f5a65726f20616464726573730000000000000000000000000000000000000000600082015250565b600062000418600c83620003cf565b91506200042582620003e0565b602082019050919050565b600060208201905081810360008301526200044b8162000409565b9050919050565b7f4964656e746963616c20746f6b656e7300000000000000000000000000000000600082015250565b60006200048a601083620003cf565b9150620004978262000452565b602082019050919050565b60006020820190508181036000830152620004bd816200047b565b9050919050565b6125c180620004d46000396000f3fe608060405234801561001057600080fd5b50600436106100cf5760003560e01c80635f64b55b1161008c5780639cd441da116100665780639cd441da1461021a578063b8c876b11461024a578063dc5fa6c51461027a578063e619a49814610298576100cf565b80635f64b55b146101ad57806398d5fdca146101cb5780639c8f9f23146101e9576100cf565b806303102091146100d4578063054d50d4146101045780630902f1ac146101345780630fc63d101461015357806315770f921461017157806319e36f3b1461018f575b600080fd5b6100ee60048036038101906100e99190611bfa565b6102c8565b6040516100fb9190611c36565b60405180910390f35b61011e60048036038101906101199190611c51565b610570565b60405161012b9190611c36565b60405180910390f35b61013c61079b565b60405161014a929190611ca4565b60405180910390f35b61015b6107e8565b6040516101689190611d0e565b60405180910390f35b61017961080e565b6040516101869190611c36565b60405180910390f35b610197610814565b6040516101a49190611c36565b60405180910390f35b6101b561081a565b6040516101c29190611d0e565b60405180910390f35b6101d3610840565b6040516101e09190611c36565b60405180910390f35b61020360048036038101906101fe9190611bfa565b610922565b604051610211929190611ca4565b60405180910390f35b610234600480360381019061022f9190611d29565b610d90565b6040516102419190611c36565b60405180910390f35b610264600480360381019061025f9190611d95565b61133a565b6040516102719190611c36565b60405180910390f35b610282611352565b60405161028f9190611c36565b60405180910390f35b6102b260048036038101906102ad9190611bfa565b611358565b6040516102bf9190611c36565b60405180910390f35b60006102de6712630db4e1402c0660c01b611600565b6102e6611603565b6102fa672470ca780edc102f60c01b611600565b61030e67a6c6a7b816d7c10c60c01b611600565b610322676fd6ad6b50a86eb760c01b611600565b61033182600354600454610570565b905061034767fcf89f619565323a60c01b611600565b61035b672d78754a40e5d4b160c01b611600565b6103aa333084600160009054906101000a900473ffffffffffffffffffffffffffffffffffffffff1673ffffffffffffffffffffffffffffffffffffffff16611652909392919063ffffffff16565b6103be67f704b5f91dbc517a60c01b611600565b6103d2672e2b0302104f5d2660c01b611600565b61041f3382600260009054906101000a900473ffffffffffffffffffffffffffffffffffffffff1673ffffffffffffffffffffffffffffffffffffffff166116db9092919063ffffffff16565b61043367844b7c0562a0ad6660c01b611600565b81600360008282546104459190611df1565b9250508190555061046067f9233b8cceec98a260c01b611600565b80600460008282546104729190611e25565b9250508190555061048d67a7190270043e562260c01b611600565b6104a167962ae589aede901c60c01b611600565b600260009054906101000a900473ffffffffffffffffffffffffffffffffffffffff1673ffffffffffffffffffffffffffffffffffffffff16600160009054906101000a900473ffffffffffffffffffffffffffffffffffffffff1673ffffffffffffffffffffffffffffffffffffffff163373ffffffffffffffffffffffffffffffffffffffff167fcd3829a3813dc3cdd188fd3d01dcf3268c16be2fdd2dd21d0665418816e46062858560405161055b929190611ca4565b60405180910390a461056b611761565b919050565b600061058667cf504e9267127e1960c01b611600565b61059a67fd00cde3cefd1f9460c01b611600565b6105ae6711a9983ed81fb39860c01b611600565b6105c267e012944b18ca8d0660c01b611600565b60008411610605576040517f08c379a00000000000000000000000000000000000000000000000000000000081526004016105fc90611eb6565b60405180910390fd5b6106196747020d1180844a5860c01b611600565b61062d67a289f6d1e1ef9b1860c01b611600565b61064167f72132c81f838c8560c01b611600565b610655675f57d30bfd4895d660c01b611600565b6000831180156106655750600082115b6106a4576040517f08c379a000000000000000000000000000000000000000000000000000000000815260040161069b90611f22565b60405180910390fd5b6106b867966f8e2110209e7860c01b611600565b6106cc6749a685362020e17160c01b611600565b6106e06774d000d77446428d60c01b611600565b60006103e5856106f09190611f42565b905061070667f3a4cccc5cdeeb0e60c01b611600565b61071a67dd7d7b4fee5e8a2460c01b611600565b600083826107289190611f42565b905061073e6767b1553ea830595960c01b611600565b61075267452d496a849c444b60c01b611600565b6000826103e8876107639190611f42565b61076d9190611df1565b905061078367a1260debcaa4980260c01b611600565b808261078f9190611fb3565b93505050509392505050565b6000806107b2675ebc1e36145d74b660c01b611600565b6107c66729b934b83460bb9f60c01b611600565b6107da671bd436b9dabeb2e060c01b611600565b600354600454915091509091565b600160009054906101000a900473ffffffffffffffffffffffffffffffffffffffff1681565b60055481565b60045481565b600260009054906101000a900473ffffffffffffffffffffffffffffffffffffffff1681565b600061085667f376a1034a52fb7e60c01b611600565b61086a678e500d896e06961460c01b611600565b61087e67c6e2be7ade49c94b60c01b611600565b610892677945b785d72a1cfa60c01b611600565b60006003541180156108a657506000600454115b6108e5576040517f08c379a00000000000000000000000000000000000000000000000000000000081526004016108dc90611f22565b60405180910390fd5b6108f967fb80f74426cd0fe460c01b611600565b61090d67bd0b12833157d97160c01b611600565b60035460045461091d9190611fb3565b905090565b60008061093967aab687d69927d29d60c01b611600565b610941611603565b61095567b27e84341586180360c01b611600565b610969672f8bf35e258bf1e360c01b611600565b61097d676812d3aa5912318e60c01b611600565b610991670205ed9868928db060c01b611600565b6109a56706cb56ce6eff387560c01b611600565b600083116109e8576040517f08c379a00000000000000000000000000000000000000000000000000000000081526004016109df90612030565b60405180910390fd5b6109fc67348fcccdf5e31bef60c01b611600565b610a10678a5f0c37b2a3fa8f60c01b611600565b610a2467bf9ca274f8c160d760c01b611600565b610a3867cb98078c699b9fd960c01b611600565b82600660003373ffffffffffffffffffffffffffffffffffffffff1673ffffffffffffffffffffffffffffffffffffffff168152602001908152602001600020541015610aba576040517f08c379a0000000000000000000000000000000000000000000000000000000008152600401610ab19061209c565b60405180910390fd5b610ace6760c50211bf1342cd60c01b611600565b610ae26763c7be7e21d9ff7660c01b611600565b60055460035484610af39190611f42565b610afd9190611fb3565b9150610b1367a3f6e91905fb296460c01b611600565b60055460045484610b249190611f42565b610b2e9190611fb3565b9050610b446709f93a27085099c460c01b611600565b82600660003373ffffffffffffffffffffffffffffffffffffffff1673ffffffffffffffffffffffffffffffffffffffff1681526020019081526020016000206000828254610b939190611e25565b92505081905550610bae6753e2d0e5fe1e287160c01b611600565b8260056000828254610bc09190611e25565b92505081905550610bdb67b517114da1462b2560c01b611600565b8160036000828254610bed9190611e25565b92505081905550610c08671afbb9b317ee1fe660c01b611600565b8060046000828254610c1a9190611e25565b92505081905550610c35675fd550124c3083fe60c01b611600565b610c4866e86e4fa9e06be660c01b611600565b610c953383600160009054906101000a900473ffffffffffffffffffffffffffffffffffffffff1673ffffffffffffffffffffffffffffffffffffffff166116db9092919063ffffffff16565b610ca9674a452febc99fab6e60c01b611600565b610cbd6762581e5f9f445eca60c01b611600565b610d0a3382600260009054906101000a900473ffffffffffffffffffffffffffffffffffffffff1673ffffffffffffffffffffffffffffffffffffffff166116db9092919063ffffffff16565b610d1d66f17dc7de4d653b60c01b611600565b610d3167608a9ba0d05a36a360c01b611600565b3373ffffffffffffffffffffffffffffffffffffffff167f1dc8bb69df2b8e91fbdcbfcf93d951b3f0000f085a95fe3f7946d6161439245d838386604051610d7b939291906120bc565b60405180910390a2610d8b611761565b915091565b6000610da6674fd7bb851999ef1860c01b611600565b610dae611603565b610dc267ccdbaa58fbd707a060c01b611600565b610dd66747fd82eea3e8e2bc60c01b611600565b610dea677725df995bb2140d60c01b611600565b610dfe67b60df91049f9d98460c01b611600565b610e12678a2fea300585ddaf60c01b611600565b600083118015610e225750600082115b610e61576040517f08c379a0000000000000000000000000000000000000000000000000000000008152600401610e589061213f565b60405180910390fd5b610e7567797680eab0d2935a60c01b611600565b610e896785fd3f9c7afcf98260c01b611600565b610e9d67504e9a73d6f1612260c01b611600565b610eec333085600160009054906101000a900473ffffffffffffffffffffffffffffffffffffffff1673ffffffffffffffffffffffffffffffffffffffff16611652909392919063ffffffff16565b610f0067a1f197d92889f86160c01b611600565b610f146707ea5def5b3a4f7960c01b611600565b610f63333084600260009054906101000a900473ffffffffffffffffffffffffffffffffffffffff1673ffffffffffffffffffffffffffffffffffffffff16611652909392919063ffffffff16565b610f7767aad70076c195f5e160c01b611600565b610f8b67da8771bd9241996e60c01b611600565b6000600554036110a157610fa9676ffd78fef64a1f6960c01b611600565b610fbd67609a7a8e393c82ff60c01b611600565b610fd18284610fcc9190611f42565b61176b565b9050610fe76783aa11b5c109ea3760c01b611600565b610ffb67253578a76622ba0d60c01b611600565b61100f67f8b7c1ec400072e560c01b611600565b60008111611052576040517f08c379a000000000000000000000000000000000000000000000000000000000815260040161104990612030565b60405180910390fd5b6110666786e4cb6b0031c3e160c01b611600565b61107a675471ef3207d988b860c01b611600565b8260038190555061109567ecdf46c5c7cb9e2b60c01b611600565b8160048190555061121b565b6110b56732e11753c0fef0d960c01b611600565b6110c967fbe8bef10071925360c01b611600565b6110dd672897463866f52f9260c01b611600565b6000600354600454856110f09190611f42565b6110fa9190611fb3565b905061111067d1b876c7b9ad8f7860c01b611600565b611124678988ff66b27e1ffe60c01b611600565b61113867ab7dd7d86132446860c01b611600565b80831461117a576040517f08c379a0000000000000000000000000000000000000000000000000000000008152600401611171906121ab565b60405180910390fd5b61118e67cd1b9915bdda306360c01b611600565b6111a2677f95eb80cf75835260c01b611600565b600354600554856111b39190611f42565b6111bd9190611fb3565b91506111d367fed106ca89cd01d360c01b611600565b83600360008282546111e59190611df1565b92505081905550611200671aeb314cfcf5f1e360c01b611600565b82600460008282546112129190611df1565b92505081905550505b61122f67883e8d9e704bd4b460c01b611600565b80600560008282546112419190611df1565b9250508190555061125c671e2ddedca7d08f6f60c01b611600565b80600660003373ffffffffffffffffffffffffffffffffffffffff1673ffffffffffffffffffffffffffffffffffffffff16815260200190815260200160002060008282546112ab9190611df1565b925050819055506112c6672df6ea001c2c673260c01b611600565b6112da675d4c44fbc792c19460c01b611600565b3373ffffffffffffffffffffffffffffffffffffffff167f64b83944e79c3ce8d4c297411de637c3e102d064677aac0c163976ebdcd6f50e848484604051611324939291906120bc565b60405180910390a2611334611761565b92915050565b60066020528060005260406000206000915090505481565b60035481565b600061136e673ffca76477c5631560c01b611600565b611376611603565b61138a67066c0e17f770550c60c01b611600565b61139e67adb58cb032993f6560c01b611600565b6113b2671beced2b43ab1ee460c01b611600565b6113c182600454600354610570565b90506113d76785c106fb572b362160c01b611600565b6113eb67fd751de5660b754f60c01b611600565b61143a333084600260009054906101000a900473ffffffffffffffffffffffffffffffffffffffff1673ffffffffffffffffffffffffffffffffffffffff16611652909392919063ffffffff16565b61144e67bce905d3d986821560c01b611600565b61146267b76741278ae68e7060c01b611600565b6114af3382600160009054906101000a900473ffffffffffffffffffffffffffffffffffffffff1673ffffffffffffffffffffffffffffffffffffffff166116db9092919063ffffffff16565b6114c3671f93820476d3f89f60c01b611600565b81600460008282546114d59190611df1565b925050819055506114f0674793231edad212cf60c01b611600565b80600360008282546115029190611e25565b9250508190555061151d67df48d36dc46a60cb60c01b611600565b61153167b5751d211458857960c01b611600565b600160009054906101000a900473ffffffffffffffffffffffffffffffffffffffff1673ffffffffffffffffffffffffffffffffffffffff16600260009054906101000a900473ffffffffffffffffffffffffffffffffffffffff1673ffffffffffffffffffffffffffffffffffffffff163373ffffffffffffffffffffffffffffffffffffffff167fcd3829a3813dc3cdd188fd3d01dcf3268c16be2fdd2dd21d0665418816e4606285856040516115eb929190611ca4565b60405180910390a46115fb611761565b919050565b50565b600260005403611648576040517f08c379a000000000000000000000000000000000000000000000000000000000815260040161163f90612217565b60405180910390fd5b6002600081905550565b6116d5846323b872dd60e01b85858560405160240161167393929190612237565b604051602081830303815290604052907bffffffffffffffffffffffffffffffffffffffffffffffffffffffff19166020820180517bffffffffffffffffffffffffffffffffffffffffffffffffffffffff838183161783525050505061192a565b50505050565b61175c8363a9059cbb60e01b84846040516024016116fa92919061226e565b604051602081830303815290604052907bffffffffffffffffffffffffffffffffffffffffffffffffffffffff19166020820180517bffffffffffffffffffffffffffffffffffffffffffffffffffffffff838183161783525050505061192a565b505050565b6001600081905550565b60006117816709c5e3f141a5414060c01b611600565b61179567c57c62822ce8735e60c01b611600565b6117a96768e0dcaf2209bd3260c01b611600565b60038211156118ae576117c6675211de116b8ace3060c01b611600565b6117da6736e434ec7e1080ac60c01b611600565b8190506117f167383ea8b3463c53d760c01b611600565b6118056723de50e2367edc8b60c01b611600565b600060016002846118169190611fb3565b6118209190611df1565b9050611836679d49e572bbf8f74060c01b611600565b61184a67c08488370c4c61d460c01b611600565b5b818110156118a857611867674ef366d251689b0560c01b611600565b80915061187e67e4725307c122627860c01b611600565b600281828561188d9190611fb3565b6118979190611df1565b6118a19190611fb3565b905061184b565b50611925565b6118c2674e198db302260c7560c01b611600565b6118d667330e18e8489c545e60c01b611600565b6000821461190f576118f26762b9d595eb09f23260c01b611600565b611906674a346fab76c7ac1f60c01b611600565b60019050611924565b61192367520e24a6206ce8ba60c01b611600565b5b5b919050565b600061198c826040518060400160405280602081526020017f5361666545524332303a206c6f772d6c6576656c2063616c6c206661696c65648152508573ffffffffffffffffffffffffffffffffffffffff166119f29092919063ffffffff16565b90506000815114806119ae5750808060200190518101906119ad91906122cf565b5b6119ed576040517f08c379a00000000000000000000000000000000000000000000000000000000081526004016119e49061236e565b60405180910390fd5b505050565b6060611a018484600085611a0a565b90509392505050565b606082471015611a4f576040517f08c379a0000000000000000000000000000000000000000000000000000000008152600401611a4690612400565b60405180910390fd5b6000808673ffffffffffffffffffffffffffffffffffffffff168587604051611a789190612491565b60006040518083038185875af1925050503d8060008114611ab5576040519150601f19603f3d011682016040523d82523d6000602084013e611aba565b606091505b5091509150611acb87838387611ad7565b92505050949350505050565b60608315611b39576000835103611b3157611af185611b4c565b611b30576040517f08c379a0000000000000000000000000000000000000000000000000000000008152600401611b27906124f4565b60405180910390fd5b5b829050611b44565b611b438383611b6f565b5b949350505050565b6000808273ffffffffffffffffffffffffffffffffffffffff163b119050919050565b600082511115611b825781518083602001fd5b806040517f08c379a0000000000000000000000000000000000000000000000000000000008152600401611bb69190612569565b60405180910390fd5b600080fd5b6000819050919050565b611bd781611bc4565b8114611be257600080fd5b50565b600081359050611bf481611bce565b92915050565b600060208284031215611c1057611c0f611bbf565b5b6000611c1e84828501611be5565b91505092915050565b611c3081611bc4565b82525050565b6000602082019050611c4b6000830184611c27565b92915050565b600080600060608486031215611c6a57611c69611bbf565b5b6000611c7886828701611be5565b9350506020611c8986828701611be5565b9250506040611c9a86828701611be5565b9150509250925092565b6000604082019050611cb96000830185611c27565b611cc66020830184611c27565b9392505050565b600073ffffffffffffffffffffffffffffffffffffffff82169050919050565b6000611cf882611ccd565b9050919050565b611d0881611ced565b82525050565b6000602082019050611d236000830184611cff565b92915050565b60008060408385031215611d4057611d3f611bbf565b5b6000611d4e85828601611be5565b9250506020611d5f85828601611be5565b9150509250929050565b611d7281611ced565b8114611d7d57600080fd5b50565b600081359050611d8f81611d69565b92915050565b600060208284031215611dab57611daa611bbf565b5b6000611db984828501611d80565b91505092915050565b7f4e487b7100000000000000000000000000000000000000000000000000000000600052601160045260246000fd5b6000611dfc82611bc4565b9150611e0783611bc4565b9250828201905080821115611e1f57611e1e611dc2565b5b92915050565b6000611e3082611bc4565b9150611e3b83611bc4565b9250828203905081811115611e5357611e52611dc2565b5b92915050565b600082825260208201905092915050565b7f5a65726f20696e70757400000000000000000000000000000000000000000000600082015250565b6000611ea0600a83611e59565b9150611eab82611e6a565b602082019050919050565b60006020820190508181036000830152611ecf81611e93565b9050919050565b7f4e6f206c69717569646974790000000000000000000000000000000000000000600082015250565b6000611f0c600c83611e59565b9150611f1782611ed6565b602082019050919050565b60006020820190508181036000830152611f3b81611eff565b9050919050565b6000611f4d82611bc4565b9150611f5883611bc4565b9250828202611f6681611bc4565b91508282048414831517611f7d57611f7c611dc2565b5b5092915050565b7f4e487b7100000000000000000000000000000000000000000000000000000000600052601260045260246000fd5b6000611fbe82611bc4565b9150611fc983611bc4565b925082611fd957611fd8611f84565b5b828204905092915050565b7f5a65726f206c6971756964697479000000000000000000000000000000000000600082015250565b600061201a600e83611e59565b915061202582611fe4565b602082019050919050565b600060208201905081810360008301526120498161200d565b9050919050565b7f4e6f7420656e6f756768206c6971756964697479000000000000000000000000600082015250565b6000612086601483611e59565b915061209182612050565b602082019050919050565b600060208201905081810360008301526120b581612079565b9050919050565b60006060820190506120d16000830186611c27565b6120de6020830185611c27565b6120eb6040830184611c27565b949350505050565b7f5a65726f20616d6f756e74000000000000000000000000000000000000000000600082015250565b6000612129600b83611e59565b9150612134826120f3565b602082019050919050565b600060208201905081810360008301526121588161211c565b9050919050565b7f526174696f206d69736d61746368000000000000000000000000000000000000600082015250565b6000612195600e83611e59565b91506121a08261215f565b602082019050919050565b600060208201905081810360008301526121c481612188565b9050919050565b7f5265656e7472616e637947756172643a207265656e7472616e742063616c6c00600082015250565b6000612201601f83611e59565b915061220c826121cb565b602082019050919050565b60006020820190508181036000830152612230816121f4565b9050919050565b600060608201905061224c6000830186611cff565b6122596020830185611cff565b6122666040830184611c27565b949350505050565b60006040820190506122836000830185611cff565b6122906020830184611c27565b9392505050565b60008115159050919050565b6122ac81612297565b81146122b757600080fd5b50565b6000815190506122c9816122a3565b92915050565b6000602082840312156122e5576122e4611bbf565b5b60006122f3848285016122ba565b91505092915050565b7f5361666545524332303a204552433230206f7065726174696f6e20646964206e60008201527f6f74207375636365656400000000000000000000000000000000000000000000602082015250565b6000612358602a83611e59565b9150612363826122fc565b604082019050919050565b600060208201905081810360008301526123878161234b565b9050919050565b7f416464726573733a20696e73756666696369656e742062616c616e636520666f60008201527f722063616c6c0000000000000000000000000000000000000000000000000000602082015250565b60006123ea602683611e59565b91506123f58261238e565b604082019050919050565b60006020820190508181036000830152612419816123dd565b9050919050565b600081519050919050565b600081905092915050565b60005b83811015612454578082015181840152602081019050612439565b60008484015250505050565b600061246b82612420565b612475818561242b565b9350612485818560208601612436565b80840191505092915050565b600061249d8284612460565b915081905092915050565b7f416464726573733a2063616c6c20746f206e6f6e2d636f6e7472616374000000600082015250565b60006124de601d83611e59565b91506124e9826124a8565b602082019050919050565b6000602082019050818103600083015261250d816124d1565b9050919050565b600081519050919050565b6000601f19601f8301169050919050565b600061253b82612514565b6125458185611e59565b9350612555818560208601612436565b61255e8161251f565b840191505092915050565b600060208201905081810360008301526125838184612530565b90509291505056fea264697066735822122014f7689dc49c99dc4a16f3545589a7396c229c2966e3caefc4ea616f1005cc7364736f6c63430008130033","opcodes":"PUSH1 0x80 PUSH1 0x40 MSTORE CALLVALUE DUP1 ISZERO PUSH3 0x11 JUMPI PUSH1 0x0 DUP1 REVERT JUMPDEST POP PUSH1 0x40 MLOAD PUSH3 0x2A95 CODESIZE SUB DUP1 PUSH3 0x2A95 DUP4 CODECOPY DUP2 DUP2 ADD PUSH1 0x40 MSTORE DUP2 ADD SWAP1 PUSH3 0x37 SWAP2 SWAP1 PUSH3 0x388 JUMP JUMPDEST PUSH1 0x1 PUSH1 0x0 DUP2 SWAP1 SSTORE POP PUSH3 0x5B PUSH8 0x735B99C85F381AA7 PUSH1 0xC0 SHL PUSH3 0x31B PUSH1 0x20 SHL PUSH1 0x20 SHR JUMP JUMPDEST PUSH3 0x77 PUSH8 0x64AAE7211AB6C092 PUSH1 0xC0 SHL PUSH3 0x31B PUSH1 0x20 SHL PUSH1 0x20 SHR JUMP JUMPDEST PUSH3 0x93 PUSH8 0x601E86057923728C PUSH1 0xC0 SHL PUSH3 0x31B PUSH1 0x20 SHL PUSH1 0x20 SHR JUMP JUMPDEST PUSH3 0xAF PUSH8 0x6F19F44F64DAC670 PUSH1 0xC0 SHL PUSH3 0x31B PUSH1 0x20 SHL PUSH1 0x20 SHR JUMP JUMPDEST PUSH1 0x0 PUSH20 0xFFFFFFFFFFFFFFFFFFFFFFFFFFFFFFFFFFFFFFFF AND DUP3 PUSH20 0xFFFFFFFFFFFFFFFFFFFFFFFFFFFFFFFFFFFFFFFF AND EQ ISZERO DUP1 ISZERO PUSH3 0x11A JUMPI POP PUSH1 0x0 PUSH20 0xFFFFFFFFFFFFFFFFFFFFFFFFFFFFFFFFFFFFFFFF AND DUP2 PUSH20 0xFFFFFFFFFFFFFFFFFFFFFFFFFFFFFFFFFFFFFFFF AND EQ ISZERO JUMPDEST PUSH3 0x15C JUMPI PUSH1 0x40 MLOAD PUSH32 0x8C379A000000000000000000000000000000000000000000000000000000000 DUP2 MSTORE PUSH1 0x4 ADD PUSH3 0x153 SWAP1 PUSH3 0x430 JUMP JUMPDEST PUSH1 0x40 MLOAD DUP1 SWAP2 SUB SWAP1 REVERT JUMPDEST PUSH3 0x178 PUSH8 0xB3B07E3689E90F97 PUSH1 0xC0 SHL PUSH3 0x31B PUSH1 0x20 SHL PUSH1 0x20 SHR JUMP JUMPDEST PUSH3 0x194 PUSH8 0x450E19EFC4D76861 PUSH1 0xC0 SHL PUSH3 0x31B PUSH1 0x20 SHL PUSH1 0x20 SHR JUMP JUMPDEST PUSH3 0x1B0 PUSH8 0xB9321A3C512C60F5 PUSH1 0xC0 SHL PUSH3 0x31B PUSH1 0x20 SHL PUSH1 0x20 SHR JUMP JUMPDEST PUSH3 0x1CC PUSH8 0xEFE348EB2EEE6DE4 PUSH1 0xC0 SHL PUSH3 0x31B PUSH1 0x20 SHL PUSH1 0x20 SHR JUMP JUMPDEST DUP1 PUSH20 0xFFFFFFFFFFFFFFFFFFFFFFFFFFFFFFFFFFFFFFFF AND DUP3 PUSH20 0xFFFFFFFFFFFFFFFFFFFFFFFFFFFFFFFFFFFFFFFF AND SUB PUSH3 0x23D JUMPI PUSH1 0x40 MLOAD PUSH32 0x8C379A000000000000000000000000000000000000000000000000000000000 DUP2 MSTORE PUSH1 0x4 ADD PUSH3 0x234 SWAP1 PUSH3 0x4A2 JUMP JUMPDEST PUSH1 0x40 MLOAD DUP1 SWAP2 SUB SWAP1 REVERT JUMPDEST PUSH3 0x259 PUSH8 0x16322F469713450E PUSH1 0xC0 SHL PUSH3 0x31B PUSH1 0x20 SHL PUSH1 0x20 SHR JUMP JUMPDEST PUSH3 0x275 PUSH8 0xE2EA5A187084F883 PUSH1 0xC0 SHL PUSH3 0x31B PUSH1 0x20 SHL PUSH1 0x20 SHR JUMP JUMPDEST DUP2 PUSH1 0x1 PUSH1 0x0 PUSH2 0x100 EXP DUP2 SLOAD DUP2 PUSH20 0xFFFFFFFFFFFFFFFFFFFFFFFFFFFFFFFFFFFFFFFF MUL NOT AND SWAP1 DUP4 PUSH20 0xFFFFFFFFFFFFFFFFFFFFFFFFFFFFFFFFFFFFFFFF AND MUL OR SWAP1 SSTORE POP PUSH3 0x2D2 PUSH8 0x1065AEFFFECF03F1 PUSH1 0xC0 SHL PUSH3 0x31B PUSH1 0x20 SHL PUSH1 0x20 SHR JUMP JUMPDEST DUP1 PUSH1 0x2 PUSH1 0x0 PUSH2 0x100 EXP DUP2 SLOAD DUP2 PUSH20 0xFFFFFFFFFFFFFFFFFFFFFFFFFFFFFFFFFFFFFFFF MUL NOT AND SWAP1 DUP4 PUSH20 0xFFFFFFFFFFFFFFFFFFFFFFFFFFFFFFFFFFFFFFFF AND MUL OR SWAP1 SSTORE POP POP POP PUSH3 0x4C4 JUMP JUMPDEST POP JUMP JUMPDEST PUSH1 0x0 DUP1 REVERT JUMPDEST PUSH1 0x0 PUSH20 0xFFFFFFFFFFFFFFFFFFFFFFFFFFFFFFFFFFFFFFFF DUP3 AND SWAP1 POP SWAP2 SWAP1 POP JUMP JUMPDEST PUSH1 0x0 PUSH3 0x350 DUP3 PUSH3 0x323 JUMP JUMPDEST SWAP1 POP SWAP2 SWAP1 POP JUMP JUMPDEST PUSH3 0x362 DUP2 PUSH3 0x343 JUMP JUMPDEST DUP2 EQ PUSH3 0x36E JUMPI PUSH1 0x0 DUP1 REVERT JUMPDEST POP JUMP JUMPDEST PUSH1 0x0 DUP2 MLOAD SWAP1 POP PUSH3 0x382 DUP2 PUSH3 0x357 JUMP JUMPDEST SWAP3 SWAP2 POP POP JUMP JUMPDEST PUSH1 0x0 DUP1 PUSH1 0x40 DUP4 DUP6 SUB SLT ISZERO PUSH3 0x3A2 JUMPI PUSH3 0x3A1 PUSH3 0x31E JUMP JUMPDEST JUMPDEST PUSH1 0x0 PUSH3 0x3B2 DUP6 DUP3 DUP7 ADD PUSH3 0x371 JUMP JUMPDEST SWAP3 POP POP PUSH1 0x20 PUSH3 0x3C5 DUP6 DUP3 DUP7 ADD PUSH3 0x371 JUMP JUMPDEST SWAP2 POP POP SWAP3 POP SWAP3 SWAP1 POP JUMP JUMPDEST PUSH1 0x0 DUP3 DUP3 MSTORE PUSH1 0x20 DUP3 ADD SWAP1 POP SWAP3 SWAP2 POP POP JUMP JUMPDEST PUSH32 0x5A65726F20616464726573730000000000000000000000000000000000000000 PUSH1 0x0 DUP3 ADD MSTORE POP JUMP JUMPDEST PUSH1 0x0 PUSH3 0x418 PUSH1 0xC DUP4 PUSH3 0x3CF JUMP JUMPDEST SWAP2 POP PUSH3 0x425 DUP3 PUSH3 0x3E0 JUMP JUMPDEST PUSH1 0x20 DUP3 ADD SWAP1 POP SWAP2 SWAP1 POP JUMP JUMPDEST PUSH1 0x0 PUSH1 0x20 DUP3 ADD SWAP1 POP DUP2 DUP2 SUB PUSH1 0x0 DUP4 ADD MSTORE PUSH3 0x44B DUP2 PUSH3 0x409 JUMP JUMPDEST SWAP1 POP SWAP2 SWAP1 POP JUMP JUMPDEST PUSH32 0x4964656E746963616C20746F6B656E7300000000000000000000000000000000 PUSH1 0x0 DUP3 ADD MSTORE POP JUMP JUMPDEST PUSH1 0x0 PUSH3 0x48A PUSH1 0x10 DUP4 PUSH3 0x3CF JUMP JUMPDEST SWAP2 POP PUSH3 0x497 DUP3 PUSH3 0x452 JUMP JUMPDEST PUSH1 0x20 DUP3 ADD SWAP1 POP SWAP2 SWAP1 POP JUMP JUMPDEST PUSH1 0x0 PUSH1 0x20 DUP3 ADD SWAP1 POP DUP2 DUP2 SUB PUSH1 0x0 DUP4 ADD MSTORE PUSH3 0x4BD DUP2 PUSH3 0x47B JUMP JUMPDEST SWAP1 POP SWAP2 SWAP1 POP JUMP JUMPDEST PUSH2 0x25C1 DUP1 PUSH3 0x4D4 PUSH1 0x0 CODECOPY PUSH1 0x0 RETURN INVALID PUSH1 0x80 PUSH1 0x40 MSTORE CALLVALUE DUP1 ISZERO PUSH2 0x10 JUMPI PUSH1 0x0 DUP1 REVERT JUMPDEST POP PUSH1 0x4 CALLDATASIZE LT PUSH2 0xCF JUMPI PUSH1 0x0 CALLDATALOAD PUSH1 0xE0 SHR DUP1 PUSH4 0x5F64B55B GT PUSH2 0x8C JUMPI DUP1 PUSH4 0x9CD441DA GT PUSH2 0x66 JUMPI DUP1 PUSH4 0x9CD441DA EQ PUSH2 0x21A JUMPI DUP1 PUSH4 0xB8C876B1 EQ PUSH2 0x24A JUMPI DUP1 PUSH4 0xDC5FA6C5 EQ PUSH2 0x27A JUMPI DUP1 PUSH4 0xE619A498 EQ PUSH2 0x298 JUMPI PUSH2 0xCF JUMP JUMPDEST DUP1 PUSH4 0x5F64B55B EQ PUSH2 0x1AD JUMPI DUP1 PUSH4 0x98D5FDCA EQ PUSH2 0x1CB JUMPI DUP1 PUSH4 0x9C8F9F23 EQ PUSH2 0x1E9 JUMPI PUSH2 0xCF JUMP JUMPDEST DUP1 PUSH4 0x3102091 EQ PUSH2 0xD4 JUMPI DUP1 PUSH4 0x54D50D4 EQ PUSH2 0x104 JUMPI DUP1 PUSH4 0x902F1AC EQ PUSH2 0x134 JUMPI DUP1 PUSH4 0xFC63D10 EQ PUSH2 0x153 JUMPI DUP1 PUSH4 0x15770F92 EQ PUSH2 0x171 JUMPI DUP1 PUSH4 0x19E36F3B EQ PUSH2 0x18F JUMPI JUMPDEST PUSH1 0x0 DUP1 REVERT JUMPDEST PUSH2 0xEE PUSH1 0x4 DUP1 CALLDATASIZE SUB DUP2 ADD SWAP1 PUSH2 0xE9 SWAP2 SWAP1 PUSH2 0x1BFA JUMP JUMPDEST PUSH2 0x2C8 JUMP JUMPDEST PUSH1 0x40 MLOAD PUSH2 0xFB SWAP2 SWAP1 PUSH2 0x1C36 JUMP JUMPDEST PUSH1 0x40 MLOAD DUP1 SWAP2 SUB SWAP1 RETURN JUMPDEST PUSH2 0x11E PUSH1 0x4 DUP1 CALLDATASIZE SUB DUP2 ADD SWAP1 PUSH2 0x119 SWAP2 SWAP1 PUSH2 0x1C51 JUMP JUMPDEST PUSH2 0x570 JUMP JUMPDEST PUSH1 0x40 MLOAD PUSH2 0x12B SWAP2 SWAP1 PUSH2 0x1C36 JUMP JUMPDEST PUSH1 0x40 MLOAD DUP1 SWAP2 SUB SWAP1 RETURN JUMPDEST PUSH2 0x13C PUSH2 0x79B JUMP JUMPDEST PUSH1 0x40 MLOAD PUSH2 0x14A SWAP3 SWAP2 SWAP1 PUSH2 0x1CA4 JUMP JUMPDEST PUSH1 0x40 MLOAD DUP1 SWAP2 SUB SWAP1 RETURN JUMPDEST PUSH2 0x15B PUSH2 0x7E8 JUMP JUMPDEST PUSH1 0x40 MLOAD PUSH2 0x168 SWAP2 SWAP1 PUSH2 0x1D0E JUMP JUMPDEST PUSH1 0x40 MLOAD DUP1 SWAP2 SUB SWAP1 RETURN JUMPDEST PUSH2 0x179 PUSH2 0x80E JUMP JUMPDEST PUSH1 0x40 MLOAD PUSH2 0x186 SWAP2 SWAP1 PUSH2 0x1C36 JUMP JUMPDEST PUSH1 0x40 MLOAD DUP1 SWAP2 SUB SWAP1 RETURN JUMPDEST PUSH2 0x197 PUSH2 0x814 JUMP JUMPDEST PUSH1 0x40 MLOAD PUSH2 0x1A4 SWAP2 SWAP1 PUSH2 0x1C36 JUMP JUMPDEST PUSH1 0x40 MLOAD DUP1 SWAP2 SUB SWAP1 RETURN JUMPDEST PUSH2 0x1B5 PUSH2 0x81A JUMP JUMPDEST PUSH1 0x40 MLOAD PUSH2 0x1C2 SWAP2 SWAP1 PUSH2 0x1D0E JUMP JUMPDEST PUSH1 0x40 MLOAD DUP1 SWAP2 SUB SWAP1 RETURN JUMPDEST PUSH2 0x1D3 PUSH2 0x840 JUMP JUMPDEST PUSH1 0x40 MLOAD PUSH2 0x1E0 SWAP2 SWAP1 PUSH2 0x1C36 JUMP JUMPDEST PUSH1 0x40 MLOAD DUP1 SWAP2 SUB SWAP1 RETURN JUMPDEST PUSH2 0x203 PUSH1 0x4 DUP1 CALLDATASIZE SUB DUP2 ADD SWAP1 PUSH2 0x1FE SWAP2 SWAP1 PUSH2 0x1BFA JUMP JUMPDEST PUSH2 0x922 JUMP JUMPDEST PUSH1 0x40 MLOAD PUSH2 0x211 SWAP3 SWAP2 SWAP1 PUSH2 0x1CA4 JUMP JUMPDEST PUSH1 0x40 MLOAD DUP1 SWAP2 SUB SWAP1 RETURN JUMPDEST PUSH2 0x234 PUSH1 0x4 DUP1 CALLDATASIZE SUB DUP2 ADD SWAP1 PUSH2 0x22F SWAP2 SWAP1 PUSH2 0x1D29 JUMP JUMPDEST PUSH2 0xD90 JUMP JUMPDEST PUSH1 0x40 MLOAD PUSH2 0x241 SWAP2 SWAP1 PUSH2 0x1C36 JUMP JUMPDEST PUSH1 0x40 MLOAD DUP1 SWAP2 SUB SWAP1 RETURN JUMPDEST PUSH2 0x264 PUSH1 0x4 DUP1 CALLDATASIZE SUB DUP2 ADD SWAP1 PUSH2 0x25F SWAP2 SWAP1 PUSH2 0x1D95 JUMP JUMPDEST PUSH2 0x133A JUMP JUMPDEST PUSH1 0x40 MLOAD PUSH2 0x271 SWAP2 SWAP1 PUSH2 0x1C36 JUMP JUMPDEST PUSH1 0x40 MLOAD DUP1 SWAP2 SUB SWAP1 RETURN JUMPDEST PUSH2 0x282 PUSH2 0x1352 JUMP JUMPDEST PUSH1 0x40 MLOAD PUSH2 0x28F SWAP2 SWAP1 PUSH2 0x1C36 JUMP JUMPDEST PUSH1 0x40 MLOAD DUP1 SWAP2 SUB SWAP1 RETURN JUMPDEST PUSH2 0x2B2 PUSH1 0x4 DUP1 CALLDATASIZE SUB DUP2 ADD SWAP1 PUSH2 0x2AD SWAP2 SWAP1 PUSH2 0x1BFA JUMP JUMPDEST PUSH2 0x1358 JUMP JUMPDEST PUSH1 0x40 MLOAD PUSH2 0x2BF SWAP2 SWAP1 PUSH2 0x1C36 JUMP JUMPDEST PUSH1 0x40 MLOAD DUP1 SWAP2 SUB SWAP1 RETURN JUMPDEST PUSH1 0x0 PUSH2 0x2DE PUSH8 0x12630DB4E1402C06 PUSH1 0xC0 SHL PUSH2 0x1600 JUMP JUMPDEST PUSH2 0x2E6 PUSH2 0x1603 JUMP JUMPDEST PUSH2 0x2FA PUSH8 0x2470CA780EDC102F PUSH1 0xC0 SHL PUSH2 0x1600 JUMP JUMPDEST PUSH2 0x30E PUSH8 0xA6C6A7B816D7C10C PUSH1 0xC0 SHL PUSH2 0x1600 JUMP JUMPDEST PUSH2 0x322 PUSH8 0x6FD6AD6B50A86EB7 PUSH1 0xC0 SHL PUSH2 0x1600 JUMP JUMPDEST PUSH2 0x331 DUP3 PUSH1 0x3 SLOAD PUSH1 0x4 SLOAD PUSH2 0x570 JUMP JUMPDEST SWAP1 POP PUSH2 0x347 PUSH8 0xFCF89F619565323A PUSH1 0xC0 SHL PUSH2 0x1600 JUMP JUMPDEST PUSH2 0x35B PUSH8 0x2D78754A40E5D4B1 PUSH1 0xC0 SHL PUSH2 0x1600 JUMP JUMPDEST PUSH2 0x3AA CALLER ADDRESS DUP5 PUSH1 0x1 PUSH1 0x0 SWAP1 SLOAD SWAP1 PUSH2 0x100 EXP SWAP1 DIV PUSH20 0xFFFFFFFFFFFFFFFFFFFFFFFFFFFFFFFFFFFFFFFF AND PUSH20 0xFFFFFFFFFFFFFFFFFFFFFFFFFFFFFFFFFFFFFFFF AND PUSH2 0x1652 SWAP1 SWAP4 SWAP3 SWAP2 SWAP1 PUSH4 0xFFFFFFFF AND JUMP JUMPDEST PUSH2 0x3BE PUSH8 0xF704B5F91DBC517A PUSH1 0xC0 SHL PUSH2 0x1600 JUMP JUMPDEST PUSH2 0x3D2 PUSH8 0x2E2B0302104F5D26 PUSH1 0xC0 SHL PUSH2 0x1600 JUMP JUMPDEST PUSH2 0x41F CALLER DUP3 PUSH1 0x2 PUSH1 0x0 SWAP1 SLOAD SWAP1 PUSH2 0x100 EXP SWAP1 DIV PUSH20 0xFFFFFFFFFFFFFFFFFFFFFFFFFFFFFFFFFFFFFFFF AND PUSH20 0xFFFFFFFFFFFFFFFFFFFFFFFFFFFFFFFFFFFFFFFF AND PUSH2 0x16DB SWAP1 SWAP3 SWAP2 SWAP1 PUSH4 0xFFFFFFFF AND JUMP JUMPDEST PUSH2 0x433 PUSH8 0x844B7C0562A0AD66 PUSH1 0xC0 SHL PUSH2 0x1600 JUMP JUMPDEST DUP2 PUSH1 0x3 PUSH1 0x0 DUP3 DUP3 SLOAD PUSH2 0x445 SWAP2 SWAP1 PUSH2 0x1DF1 JUMP JUMPDEST SWAP3 POP POP DUP2 SWAP1 SSTORE POP PUSH2 0x460 PUSH8 0xF9233B8CCEEC98A2 PUSH1 0xC0 SHL PUSH2 0x1600 JUMP JUMPDEST DUP1 PUSH1 0x4 PUSH1 0x0 DUP3 DUP3 SLOAD PUSH2 0x472 SWAP2 SWAP1 PUSH2 0x1E25 JUMP JUMPDEST SWAP3 POP POP DUP2 SWAP1 SSTORE POP PUSH2 0x48D PUSH8 0xA7190270043E5622 PUSH1 0xC0 SHL PUSH2 0x1600 JUMP JUMPDEST PUSH2 0x4A1 PUSH8 0x962AE589AEDE901C PUSH1 0xC0 SHL PUSH2 0x1600 JUMP JUMPDEST PUSH1 0x2 PUSH1 0x0 SWAP1 SLOAD SWAP1 PUSH2 0x100 EXP SWAP1 DIV PUSH20 0xFFFFFFFFFFFFFFFFFFFFFFFFFFFFFFFFFFFFFFFF AND PUSH20 0xFFFFFFFFFFFFFFFFFFFFFFFFFFFFFFFFFFFFFFFF AND PUSH1 0x1 PUSH1 0x0 SWAP1 SLOAD SWAP1 PUSH2 0x100 EXP SWAP1 DIV PUSH20 0xFFFFFFFFFFFFFFFFFFFFFFFFFFFFFFFFFFFFFFFF AND PUSH20 0xFFFFFFFFFFFFFFFFFFFFFFFFFFFFFFFFFFFFFFFF AND CALLER PUSH20 0xFFFFFFFFFFFFFFFFFFFFFFFFFFFFFFFFFFFFFFFF AND PUSH32 0xCD3829A3813DC3CDD188FD3D01DCF3268C16BE2FDD2DD21D0665418816E46062 DUP6 DUP6 PUSH1 0x40 MLOAD PUSH2 0x55B SWAP3 SWAP2 SWAP1 PUSH2 0x1CA4 JUMP JUMPDEST PUSH1 0x40 MLOAD DUP1 SWAP2 SUB SWAP1 LOG4 PUSH2 0x56B PUSH2 0x1761 JUMP JUMPDEST SWAP2 SWAP1 POP JUMP JUMPDEST PUSH1 0x0 PUSH2 0x586 PUSH8 0xCF504E9267127E19 PUSH1 0xC0 SHL PUSH2 0x1600 JUMP JUMPDEST PUSH2 0x59A PUSH8 0xFD00CDE3CEFD1F94 PUSH1 0xC0 SHL PUSH2 0x1600 JUMP JUMPDEST PUSH2 0x5AE PUSH8 0x11A9983ED81FB398 PUSH1 0xC0 SHL PUSH2 0x1600 JUMP JUMPDEST PUSH2 0x5C2 PUSH8 0xE012944B18CA8D06 PUSH1 0xC0 SHL PUSH2 0x1600 JUMP JUMPDEST PUSH1 0x0 DUP5 GT PUSH2 0x605 JUMPI PUSH1 0x40 MLOAD PUSH32 0x8C379A000000000000000000000000000000000000000000000000000000000 DUP2 MSTORE PUSH1 0x4 ADD PUSH2 0x5FC SWAP1 PUSH2 0x1EB6 JUMP JUMPDEST PUSH1 0x40 MLOAD DUP1 SWAP2 SUB SWAP1 REVERT JUMPDEST PUSH2 0x619 PUSH8 0x47020D1180844A58 PUSH1 0xC0 SHL PUSH2 0x1600 JUMP JUMPDEST PUSH2 0x62D PUSH8 0xA289F6D1E1EF9B18 PUSH1 0xC0 SHL PUSH2 0x1600 JUMP JUMPDEST PUSH2 0x641 PUSH8 0xF72132C81F838C85 PUSH1 0xC0 SHL PUSH2 0x1600 JUMP JUMPDEST PUSH2 0x655 PUSH8 0x5F57D30BFD4895D6 PUSH1 0xC0 SHL PUSH2 0x1600 JUMP JUMPDEST PUSH1 0x0 DUP4 GT DUP1 ISZERO PUSH2 0x665 JUMPI POP PUSH1 0x0 DUP3 GT JUMPDEST PUSH2 0x6A4 JUMPI PUSH1 0x40 MLOAD PUSH32 0x8C379A000000000000000000000000000000000000000000000000000000000 DUP2 MSTORE PUSH1 0x4 ADD PUSH2 0x69B SWAP1 PUSH2 0x1F22 JUMP JUMPDEST PUSH1 0x40 MLOAD DUP1 SWAP2 SUB SWAP1 REVERT JUMPDEST PUSH2 0x6B8 PUSH8 0x966F8E2110209E78 PUSH1 0xC0 SHL PUSH2 0x1600 JUMP JUMPDEST PUSH2 0x6CC PUSH8 0x49A685362020E171 PUSH1 0xC0 SHL PUSH2 0x1600 JUMP JUMPDEST PUSH2 0x6E0 PUSH8 0x74D000D77446428D PUSH1 0xC0 SHL PUSH2 0x1600 JUMP JUMPDEST PUSH1 0x0 PUSH2 0x3E5 DUP6 PUSH2 0x6F0 SWAP2 SWAP1 PUSH2 0x1F42 JUMP JUMPDEST SWAP1 POP PUSH2 0x706 PUSH8 0xF3A4CCCC5CDEEB0E PUSH1 0xC0 SHL PUSH2 0x1600 JUMP JUMPDEST PUSH2 0x71A PUSH8 0xDD7D7B4FEE5E8A24 PUSH1 0xC0 SHL PUSH2 0x1600 JUMP JUMPDEST PUSH1 0x0 DUP4 DUP3 PUSH2 0x728 SWAP2 SWAP1 PUSH2 0x1F42 JUMP JUMPDEST SWAP1 POP PUSH2 0x73E PUSH8 0x67B1553EA8305959 PUSH1 0xC0 SHL PUSH2 0x1600 JUMP JUMPDEST PUSH2 0x752 PUSH8 0x452D496A849C444B PUSH1 0xC0 SHL PUSH2 0x1600 JUMP JUMPDEST PUSH1 0x0 DUP3 PUSH2 0x3E8 DUP8 PUSH2 0x763 SWAP2 SWAP1 PUSH2 0x1F42 JUMP JUMPDEST PUSH2 0x76D SWAP2 SWAP1 PUSH2 0x1DF1 JUMP JUMPDEST SWAP1 POP PUSH2 0x783 PUSH8 0xA1260DEBCAA49802 PUSH1 0xC0 SHL PUSH2 0x1600 JUMP JUMPDEST DUP1 DUP3 PUSH2 0x78F SWAP2 SWAP1 PUSH2 0x1FB3 JUMP JUMPDEST SWAP4 POP POP POP POP SWAP4 SWAP3 POP POP POP JUMP JUMPDEST PUSH1 0x0 DUP1 PUSH2 0x7B2 PUSH8 0x5EBC1E36145D74B6 PUSH1 0xC0 SHL PUSH2 0x1600 JUMP JUMPDEST PUSH2 0x7C6 PUSH8 0x29B934B83460BB9F PUSH1 0xC0 SHL PUSH2 0x1600 JUMP JUMPDEST PUSH2 0x7DA PUSH8 0x1BD436B9DABEB2E0 PUSH1 0xC0 SHL PUSH2 0x1600 JUMP JUMPDEST PUSH1 0x3 SLOAD PUSH1 0x4 SLOAD SWAP2 POP SWAP2 POP SWAP1 SWAP2 JUMP JUMPDEST PUSH1 0x1 PUSH1 0x0 SWAP1 SLOAD SWAP1 PUSH2 0x100 EXP SWAP1 DIV PUSH20 0xFFFFFFFFFFFFFFFFFFFFFFFFFFFFFFFFFFFFFFFF AND DUP2 JUMP JUMPDEST PUSH1 0x5 SLOAD DUP2 JUMP JUMPDEST PUSH1 0x4 SLOAD DUP2 JUMP JUMPDEST PUSH1 0x2 PUSH1 0x0 SWAP1 SLOAD SWAP1 PUSH2 0x100 EXP SWAP1 DIV PUSH20 0xFFFFFFFFFFFFFFFFFFFFFFFFFFFFFFFFFFFFFFFF AND DUP2 JUMP JUMPDEST PUSH1 0x0 PUSH2 0x856 PUSH8 0xF376A1034A52FB7E PUSH1 0xC0 SHL PUSH2 0x1600 JUMP JUMPDEST PUSH2 0x86A PUSH8 0x8E500D896E069614 PUSH1 0xC0 SHL PUSH2 0x1600 JUMP JUMPDEST PUSH2 0x87E PUSH8 0xC6E2BE7ADE49C94B PUSH1 0xC0 SHL PUSH2 0x1600 JUMP JUMPDEST PUSH2 0x892 PUSH8 0x7945B785D72A1CFA PUSH1 0xC0 SHL PUSH2 0x1600 JUMP JUMPDEST PUSH1 0x0 PUSH1 0x3 SLOAD GT DUP1 ISZERO PUSH2 0x8A6 JUMPI POP PUSH1 0x0 PUSH1 0x4 SLOAD GT JUMPDEST PUSH2 0x8E5 JUMPI PUSH1 0x40 MLOAD PUSH32 0x8C379A000000000000000000000000000000000000000000000000000000000 DUP2 MSTORE PUSH1 0x4 ADD PUSH2 0x8DC SWAP1 PUSH2 0x1F22 JUMP JUMPDEST PUSH1 0x40 MLOAD DUP1 SWAP2 SUB SWAP1 REVERT JUMPDEST PUSH2 0x8F9 PUSH8 0xFB80F74426CD0FE4 PUSH1 0xC0 SHL PUSH2 0x1600 JUMP JUMPDEST PUSH2 0x90D PUSH8 0xBD0B12833157D971 PUSH1 0xC0 SHL PUSH2 0x1600 JUMP JUMPDEST PUSH1 0x3 SLOAD PUSH1 0x4 SLOAD PUSH2 0x91D SWAP2 SWAP1 PUSH2 0x1FB3 JUMP JUMPDEST SWAP1 POP SWAP1 JUMP JUMPDEST PUSH1 0x0 DUP1 PUSH2 0x939 PUSH8 0xAAB687D69927D29D PUSH1 0xC0 SHL PUSH2 0x1600 JUMP JUMPDEST PUSH2 0x941 PUSH2 0x1603 JUMP JUMPDEST PUSH2 0x955 PUSH8 0xB27E843415861803 PUSH1 0xC0 SHL PUSH2 0x1600 JUMP JUMPDEST PUSH2 0x969 PUSH8 0x2F8BF35E258BF1E3 PUSH1 0xC0 SHL PUSH2 0x1600 JUMP JUMPDEST PUSH2 0x97D PUSH8 0x6812D3AA5912318E PUSH1 0xC0 SHL PUSH2 0x1600 JUMP JUMPDEST PUSH2 0x991 PUSH8 0x205ED9868928DB0 PUSH1 0xC0 SHL PUSH2 0x1600 JUMP JUMPDEST PUSH2 0x9A5 PUSH8 0x6CB56CE6EFF3875 PUSH1 0xC0 SHL PUSH2 0x1600 JUMP JUMPDEST PUSH1 0x0 DUP4 GT PUSH2 0x9E8 JUMPI PUSH1 0x40 MLOAD PUSH32 0x8C379A000000000000000000000000000000000000000000000000000000000 DUP2 MSTORE PUSH1 0x4 ADD PUSH2 0x9DF SWAP1 PUSH2 0x2030 JUMP JUMPDEST PUSH1 0x40 MLOAD DUP1 SWAP2 SUB SWAP1 REVERT JUMPDEST PUSH2 0x9FC PUSH8 0x348FCCCDF5E31BEF PUSH1 0xC0 SHL PUSH2 0x1600 JUMP JUMPDEST PUSH2 0xA10 PUSH8 0x8A5F0C37B2A3FA8F PUSH1 0xC0 SHL PUSH2 0x1600 JUMP JUMPDEST PUSH2 0xA24 PUSH8 0xBF9CA274F8C160D7 PUSH1 0xC0 SHL PUSH2 0x1600 JUMP JUMPDEST PUSH2 0xA38 PUSH8 0xCB98078C699B9FD9 PUSH1 0xC0 SHL PUSH2 0x1600 JUMP JUMPDEST DUP3 PUSH1 0x6 PUSH1 0x0 CALLER PUSH20 0xFFFFFFFFFFFFFFFFFFFFFFFFFFFFFFFFFFFFFFFF AND PUSH20 0xFFFFFFFFFFFFFFFFFFFFFFFFFFFFFFFFFFFFFFFF AND DUP2 MSTORE PUSH1 0x20 ADD SWAP1 DUP2 MSTORE PUSH1 0x20 ADD PUSH1 0x0 KECCAK256 SLOAD LT ISZERO PUSH2 0xABA JUMPI PUSH1 0x40 MLOAD PUSH32 0x8C379A000000000000000000000000000000000000000000000000000000000 DUP2 MSTORE PUSH1 0x4 ADD PUSH2 0xAB1 SWAP1 PUSH2 0x209C JUMP JUMPDEST PUSH1 0x40 MLOAD DUP1 SWAP2 SUB SWAP1 REVERT JUMPDEST PUSH2 0xACE PUSH8 0x60C50211BF1342CD PUSH1 0xC0 SHL PUSH2 0x1600 JUMP JUMPDEST PUSH2 0xAE2 PUSH8 0x63C7BE7E21D9FF76 PUSH1 0xC0 SHL PUSH2 0x1600 JUMP JUMPDEST PUSH1 0x5 SLOAD PUSH1 0x3 SLOAD DUP5 PUSH2 0xAF3 SWAP2 SWAP1 PUSH2 0x1F42 JUMP JUMPDEST PUSH2 0xAFD SWAP2 SWAP1 PUSH2 0x1FB3 JUMP JUMPDEST SWAP2 POP PUSH2 0xB13 PUSH8 0xA3F6E91905FB2964 PUSH1 0xC0 SHL PUSH2 0x1600 JUMP JUMPDEST PUSH1 0x5 SLOAD PUSH1 0x4 SLOAD DUP5 PUSH2 0xB24 SWAP2 SWAP1 PUSH2 0x1F42 JUMP JUMPDEST PUSH2 0xB2E SWAP2 SWAP1 PUSH2 0x1FB3 JUMP JUMPDEST SWAP1 POP PUSH2 0xB44 PUSH8 0x9F93A27085099C4 PUSH1 0xC0 SHL PUSH2 0x1600 JUMP JUMPDEST DUP3 PUSH1 0x6 PUSH1 0x0 CALLER PUSH20 0xFFFFFFFFFFFFFFFFFFFFFFFFFFFFFFFFFFFFFFFF AND PUSH20 0xFFFFFFFFFFFFFFFFFFFFFFFFFFFFFFFFFFFFFFFF AND DUP2 MSTORE PUSH1 0x20 ADD SWAP1 DUP2 MSTORE PUSH1 0x20 ADD PUSH1 0x0 KECCAK256 PUSH1 0x0 DUP3 DUP3 SLOAD PUSH2 0xB93 SWAP2 SWAP1 PUSH2 0x1E25 JUMP JUMPDEST SWAP3 POP POP DUP2 SWAP1 SSTORE POP PUSH2 0xBAE PUSH8 0x53E2D0E5FE1E2871 PUSH1 0xC0 SHL PUSH2 0x1600 JUMP JUMPDEST DUP3 PUSH1 0x5 PUSH1 0x0 DUP3 DUP3 SLOAD PUSH2 0xBC0 SWAP2 SWAP1 PUSH2 0x1E25 JUMP JUMPDEST SWAP3 POP POP DUP2 SWAP1 SSTORE POP PUSH2 0xBDB PUSH8 0xB517114DA1462B25 PUSH1 0xC0 SHL PUSH2 0x1600 JUMP JUMPDEST DUP2 PUSH1 0x3 PUSH1 0x0 DUP3 DUP3 SLOAD PUSH2 0xBED SWAP2 SWAP1 PUSH2 0x1E25 JUMP JUMPDEST SWAP3 POP POP DUP2 SWAP1 SSTORE POP PUSH2 0xC08 PUSH8 0x1AFBB9B317EE1FE6 PUSH1 0xC0 SHL PUSH2 0x1600 JUMP JUMPDEST DUP1 PUSH1 0x4 PUSH1 0x0 DUP3 DUP3 SLOAD PUSH2 0xC1A SWAP2 SWAP1 PUSH2 0x1E25 JUMP JUMPDEST SWAP3 POP POP DUP2 SWAP1 SSTORE POP PUSH2 0xC35 PUSH8 0x5FD550124C3083FE PUSH1 0xC0 SHL PUSH2 0x1600 JUMP JUMPDEST PUSH2 0xC48 PUSH7 0xE86E4FA9E06BE6 PUSH1 0xC0 SHL PUSH2 0x1600 JUMP JUMPDEST PUSH2 0xC95 CALLER DUP4 PUSH1 0x1 PUSH1 0x0 SWAP1 SLOAD SWAP1 PUSH2 0x100 EXP SWAP1 DIV PUSH20 0xFFFFFFFFFFFFFFFFFFFFFFFFFFFFFFFFFFFFFFFF AND PUSH20 0xFFFFFFFFFFFFFFFFFFFFFFFFFFFFFFFFFFFFFFFF AND PUSH2 0x16DB SWAP1 SWAP3 SWAP2 SWAP1 PUSH4 0xFFFFFFFF AND JUMP JUMPDEST PUSH2 0xCA9 PUSH8 0x4A452FEBC99FAB6E PUSH1 0xC0 SHL PUSH2 0x1600 JUMP JUMPDEST PUSH2 0xCBD PUSH8 0x62581E5F9F445ECA PUSH1 0xC0 SHL PUSH2 0x1600 JUMP JUMPDEST PUSH2 0xD0A CALLER DUP3 PUSH1 0x2 PUSH1 0x0 SWAP1 SLOAD SWAP1 PUSH2 0x100 EXP SWAP1 DIV PUSH20 0xFFFFFFFFFFFFFFFFFFFFFFFFFFFFFFFFFFFFFFFF AND PUSH20 0xFFFFFFFFFFFFFFFFFFFFFFFFFFFFFFFFFFFFFFFF AND PUSH2 0x16DB SWAP1 SWAP3 SWAP2 SWAP1 PUSH4 0xFFFFFFFF AND JUMP JUMPDEST PUSH2 0xD1D PUSH7 0xF17DC7DE4D653B PUSH1 0xC0 SHL PUSH2 0x1600 JUMP JUMPDEST PUSH2 0xD31 PUSH8 0x608A9BA0D05A36A3 PUSH1 0xC0 SHL PUSH2 0x1600 JUMP JUMPDEST CALLER PUSH20 0xFFFFFFFFFFFFFFFFFFFFFFFFFFFFFFFFFFFFFFFF AND PUSH32 0x1DC8BB69DF2B8E91FBDCBFCF93D951B3F0000F085A95FE3F7946D6161439245D DUP4 DUP4 DUP7 PUSH1 0x40 MLOAD PUSH2 0xD7B SWAP4 SWAP3 SWAP2 SWAP1 PUSH2 0x20BC JUMP JUMPDEST PUSH1 0x40 MLOAD DUP1 SWAP2 SUB SWAP1 LOG2 PUSH2 0xD8B PUSH2 0x1761 JUMP JUMPDEST SWAP2 POP SWAP2 JUMP JUMPDEST PUSH1 0x0 PUSH2 0xDA6 PUSH8 0x4FD7BB851999EF18 PUSH1 0xC0 SHL PUSH2 0x1600 JUMP JUMPDEST PUSH2 0xDAE PUSH2 0x1603 JUMP JUMPDEST PUSH2 0xDC2 PUSH8 0xCCDBAA58FBD707A0 PUSH1 0xC0 SHL PUSH2 0x1600 JUMP JUMPDEST PUSH2 0xDD6 PUSH8 0x47FD82EEA3E8E2BC PUSH1 0xC0 SHL PUSH2 0x1600 JUMP JUMPDEST PUSH2 0xDEA PUSH8 0x7725DF995BB2140D PUSH1 0xC0 SHL PUSH2 0x1600 JUMP JUMPDEST PUSH2 0xDFE PUSH8 0xB60DF91049F9D984 PUSH1 0xC0 SHL PUSH2 0x1600 JUMP JUMPDEST PUSH2 0xE12 PUSH8 0x8A2FEA300585DDAF PUSH1 0xC0 SHL PUSH2 0x1600 JUMP JUMPDEST PUSH1 0x0 DUP4 GT DUP1 ISZERO PUSH2 0xE22 JUMPI POP PUSH1 0x0 DUP3 GT JUMPDEST PUSH2 0xE61 JUMPI PUSH1 0x40 MLOAD PUSH32 0x8C379A000000000000000000000000000000000000000000000000000000000 DUP2 MSTORE PUSH1 0x4 ADD PUSH2 0xE58 SWAP1 PUSH2 0x213F JUMP JUMPDEST PUSH1 0x40 MLOAD DUP1 SWAP2 SUB SWAP1 REVERT JUMPDEST PUSH2 0xE75 PUSH8 0x797680EAB0D2935A PUSH1 0xC0 SHL PUSH2 0x1600 JUMP JUMPDEST PUSH2 0xE89 PUSH8 0x85FD3F9C7AFCF982 PUSH1 0xC0 SHL PUSH2 0x1600 JUMP JUMPDEST PUSH2 0xE9D PUSH8 0x504E9A73D6F16122 PUSH1 0xC0 SHL PUSH2 0x1600 JUMP JUMPDEST PUSH2 0xEEC CALLER ADDRESS DUP6 PUSH1 0x1 PUSH1 0x0 SWAP1 SLOAD SWAP1 PUSH2 0x100 EXP SWAP1 DIV PUSH20 0xFFFFFFFFFFFFFFFFFFFFFFFFFFFFFFFFFFFFFFFF AND PUSH20 0xFFFFFFFFFFFFFFFFFFFFFFFFFFFFFFFFFFFFFFFF AND PUSH2 0x1652 SWAP1 SWAP4 SWAP3 SWAP2 SWAP1 PUSH4 0xFFFFFFFF AND JUMP JUMPDEST PUSH2 0xF00 PUSH8 0xA1F197D92889F861 PUSH1 0xC0 SHL PUSH2 0x1600 JUMP JUMPDEST PUSH2 0xF14 PUSH8 0x7EA5DEF5B3A4F79 PUSH1 0xC0 SHL PUSH2 0x1600 JUMP JUMPDEST PUSH2 0xF63 CALLER ADDRESS DUP5 PUSH1 0x2 PUSH1 0x0 SWAP1 SLOAD SWAP1 PUSH2 0x100 EXP SWAP1 DIV PUSH20 0xFFFFFFFFFFFFFFFFFFFFFFFFFFFFFFFFFFFFFFFF AND PUSH20 0xFFFFFFFFFFFFFFFFFFFFFFFFFFFFFFFFFFFFFFFF AND PUSH2 0x1652 SWAP1 SWAP4 SWAP3 SWAP2 SWAP1 PUSH4 0xFFFFFFFF AND JUMP JUMPDEST PUSH2 0xF77 PUSH8 0xAAD70076C195F5E1 PUSH1 0xC0 SHL PUSH2 0x1600 JUMP JUMPDEST PUSH2 0xF8B PUSH8 0xDA8771BD9241996E PUSH1 0xC0 SHL PUSH2 0x1600 JUMP JUMPDEST PUSH1 0x0 PUSH1 0x5 SLOAD SUB PUSH2 0x10A1 JUMPI PUSH2 0xFA9 PUSH8 0x6FFD78FEF64A1F69 PUSH1 0xC0 SHL PUSH2 0x1600 JUMP JUMPDEST PUSH2 0xFBD PUSH8 0x609A7A8E393C82FF PUSH1 0xC0 SHL PUSH2 0x1600 JUMP JUMPDEST PUSH2 0xFD1 DUP3 DUP5 PUSH2 0xFCC SWAP2 SWAP1 PUSH2 0x1F42 JUMP JUMPDEST PUSH2 0x176B JUMP JUMPDEST SWAP1 POP PUSH2 0xFE7 PUSH8 0x83AA11B5C109EA37 PUSH1 0xC0 SHL PUSH2 0x1600 JUMP JUMPDEST PUSH2 0xFFB PUSH8 0x253578A76622BA0D PUSH1 0xC0 SHL PUSH2 0x1600 JUMP JUMPDEST PUSH2 0x100F PUSH8 0xF8B7C1EC400072E5 PUSH1 0xC0 SHL PUSH2 0x1600 JUMP JUMPDEST PUSH1 0x0 DUP2 GT PUSH2 0x1052 JUMPI PUSH1 0x40 MLOAD PUSH32 0x8C379A000000000000000000000000000000000000000000000000000000000 DUP2 MSTORE PUSH1 0x4 ADD PUSH2 0x1049 SWAP1 PUSH2 0x2030 JUMP JUMPDEST PUSH1 0x40 MLOAD DUP1 SWAP2 SUB SWAP1 REVERT JUMPDEST PUSH2 0x1066 PUSH8 0x86E4CB6B0031C3E1 PUSH1 0xC0 SHL PUSH2 0x1600 JUMP JUMPDEST PUSH2 0x107A PUSH8 0x5471EF3207D988B8 PUSH1 0xC0 SHL PUSH2 0x1600 JUMP JUMPDEST DUP3 PUSH1 0x3 DUP2 SWAP1 SSTORE POP PUSH2 0x1095 PUSH8 0xECDF46C5C7CB9E2B PUSH1 0xC0 SHL PUSH2 0x1600 JUMP JUMPDEST DUP2 PUSH1 0x4 DUP2 SWAP1 SSTORE POP PUSH2 0x121B JUMP JUMPDEST PUSH2 0x10B5 PUSH8 0x32E11753C0FEF0D9 PUSH1 0xC0 SHL PUSH2 0x1600 JUMP JUMPDEST PUSH2 0x10C9 PUSH8 0xFBE8BEF100719253 PUSH1 0xC0 SHL PUSH2 0x1600 JUMP JUMPDEST PUSH2 0x10DD PUSH8 0x2897463866F52F92 PUSH1 0xC0 SHL PUSH2 0x1600 JUMP JUMPDEST PUSH1 0x0 PUSH1 0x3 SLOAD PUSH1 0x4 SLOAD DUP6 PUSH2 0x10F0 SWAP2 SWAP1 PUSH2 0x1F42 JUMP JUMPDEST PUSH2 0x10FA SWAP2 SWAP1 PUSH2 0x1FB3 JUMP JUMPDEST SWAP1 POP PUSH2 0x1110 PUSH8 0xD1B876C7B9AD8F78 PUSH1 0xC0 SHL PUSH2 0x1600 JUMP JUMPDEST PUSH2 0x1124 PUSH8 0x8988FF66B27E1FFE PUSH1 0xC0 SHL PUSH2 0x1600 JUMP JUMPDEST PUSH2 0x1138 PUSH8 0xAB7DD7D861324468 PUSH1 0xC0 SHL PUSH2 0x1600 JUMP JUMPDEST DUP1 DUP4 EQ PUSH2 0x117A JUMPI PUSH1 0x40 MLOAD PUSH32 0x8C379A000000000000000000000000000000000000000000000000000000000 DUP2 MSTORE PUSH1 0x4 ADD PUSH2 0x1171 SWAP1 PUSH2 0x21AB JUMP JUMPDEST PUSH1 0x40 MLOAD DUP1 SWAP2 SUB SWAP1 REVERT JUMPDEST PUSH2 0x118E PUSH8 0xCD1B9915BDDA3063 PUSH1 0xC0 SHL PUSH2 0x1600 JUMP JUMPDEST PUSH2 0x11A2 PUSH8 0x7F95EB80CF758352 PUSH1 0xC0 SHL PUSH2 0x1600 JUMP JUMPDEST PUSH1 0x3 SLOAD PUSH1 0x5 SLOAD DUP6 PUSH2 0x11B3 SWAP2 SWAP1 PUSH2 0x1F42 JUMP JUMPDEST PUSH2 0x11BD SWAP2 SWAP1 PUSH2 0x1FB3 JUMP JUMPDEST SWAP2 POP PUSH2 0x11D3 PUSH8 0xFED106CA89CD01D3 PUSH1 0xC0 SHL PUSH2 0x1600 JUMP JUMPDEST DUP4 PUSH1 0x3 PUSH1 0x0 DUP3 DUP3 SLOAD PUSH2 0x11E5 SWAP2 SWAP1 PUSH2 0x1DF1 JUMP JUMPDEST SWAP3 POP POP DUP2 SWAP1 SSTORE POP PUSH2 0x1200 PUSH8 0x1AEB314CFCF5F1E3 PUSH1 0xC0 SHL PUSH2 0x1600 JUMP JUMPDEST DUP3 PUSH1 0x4 PUSH1 0x0 DUP3 DUP3 SLOAD PUSH2 0x1212 SWAP2 SWAP1 PUSH2 0x1DF1 JUMP JUMPDEST SWAP3 POP POP DUP2 SWAP1 SSTORE POP POP JUMPDEST PUSH2 0x122F PUSH8 0x883E8D9E704BD4B4 PUSH1 0xC0 SHL PUSH2 0x1600 JUMP JUMPDEST DUP1 PUSH1 0x5 PUSH1 0x0 DUP3 DUP3 SLOAD PUSH2 0x1241 SWAP2 SWAP1 PUSH2 0x1DF1 JUMP JUMPDEST SWAP3 POP POP DUP2 SWAP1 SSTORE POP PUSH2 0x125C PUSH8 0x1E2DDEDCA7D08F6F PUSH1 0xC0 SHL PUSH2 0x1600 JUMP JUMPDEST DUP1 PUSH1 0x6 PUSH1 0x0 CALLER PUSH20 0xFFFFFFFFFFFFFFFFFFFFFFFFFFFFFFFFFFFFFFFF AND PUSH20 0xFFFFFFFFFFFFFFFFFFFFFFFFFFFFFFFFFFFFFFFF AND DUP2 MSTORE PUSH1 0x20 ADD SWAP1 DUP2 MSTORE PUSH1 0x20 ADD PUSH1 0x0 KECCAK256 PUSH1 0x0 DUP3 DUP3 SLOAD PUSH2 0x12AB SWAP2 SWAP1 PUSH2 0x1DF1 JUMP JUMPDEST SWAP3 POP POP DUP2 SWAP1 SSTORE POP PUSH2 0x12C6 PUSH8 0x2DF6EA001C2C6732 PUSH1 0xC0 SHL PUSH2 0x1600 JUMP JUMPDEST PUSH2 0x12DA PUSH8 0x5D4C44FBC792C194 PUSH1 0xC0 SHL PUSH2 0x1600 JUMP JUMPDEST CALLER PUSH20 0xFFFFFFFFFFFFFFFFFFFFFFFFFFFFFFFFFFFFFFFF AND PUSH32 0x64B83944E79C3CE8D4C297411DE637C3E102D064677AAC0C163976EBDCD6F50E DUP5 DUP5 DUP5 PUSH1 0x40 MLOAD PUSH2 0x1324 SWAP4 SWAP3 SWAP2 SWAP1 PUSH2 0x20BC JUMP JUMPDEST PUSH1 0x40 MLOAD DUP1 SWAP2 SUB SWAP1 LOG2 PUSH2 0x1334 PUSH2 0x1761 JUMP JUMPDEST SWAP3 SWAP2 POP POP JUMP JUMPDEST PUSH1 0x6 PUSH1 0x20 MSTORE DUP1 PUSH1 0x0 MSTORE PUSH1 0x40 PUSH1 0x0 KECCAK256 PUSH1 0x0 SWAP2 POP SWAP1 POP SLOAD DUP2 JUMP JUMPDEST PUSH1 0x3 SLOAD DUP2 JUMP JUMPDEST PUSH1 0x0 PUSH2 0x136E PUSH8 0x3FFCA76477C56315 PUSH1 0xC0 SHL PUSH2 0x1600 JUMP JUMPDEST PUSH2 0x1376 PUSH2 0x1603 JUMP JUMPDEST PUSH2 0x138A PUSH8 0x66C0E17F770550C PUSH1 0xC0 SHL PUSH2 0x1600 JUMP JUMPDEST PUSH2 0x139E PUSH8 0xADB58CB032993F65 PUSH1 0xC0 SHL PUSH2 0x1600 JUMP JUMPDEST PUSH2 0x13B2 PUSH8 0x1BECED2B43AB1EE4 PUSH1 0xC0 SHL PUSH2 0x1600 JUMP JUMPDEST PUSH2 0x13C1 DUP3 PUSH1 0x4 SLOAD PUSH1 0x3 SLOAD PUSH2 0x570 JUMP JUMPDEST SWAP1 POP PUSH2 0x13D7 PUSH8 0x85C106FB572B3621 PUSH1 0xC0 SHL PUSH2 0x1600 JUMP JUMPDEST PUSH2 0x13EB PUSH8 0xFD751DE5660B754F PUSH1 0xC0 SHL PUSH2 0x1600 JUMP JUMPDEST PUSH2 0x143A CALLER ADDRESS DUP5 PUSH1 0x2 PUSH1 0x0 SWAP1 SLOAD SWAP1 PUSH2 0x100 EXP SWAP1 DIV PUSH20 0xFFFFFFFFFFFFFFFFFFFFFFFFFFFFFFFFFFFFFFFF AND PUSH20 0xFFFFFFFFFFFFFFFFFFFFFFFFFFFFFFFFFFFFFFFF AND PUSH2 0x1652 SWAP1 SWAP4 SWAP3 SWAP2 SWAP1 PUSH4 0xFFFFFFFF AND JUMP JUMPDEST PUSH2 0x144E PUSH8 0xBCE905D3D9868215 PUSH1 0xC0 SHL PUSH2 0x1600 JUMP JUMPDEST PUSH2 0x1462 PUSH8 0xB76741278AE68E70 PUSH1 0xC0 SHL PUSH2 0x1600 JUMP JUMPDEST PUSH2 0x14AF CALLER DUP3 PUSH1 0x1 PUSH1 0x0 SWAP1 SLOAD SWAP1 PUSH2 0x100 EXP SWAP1 DIV PUSH20 0xFFFFFFFFFFFFFFFFFFFFFFFFFFFFFFFFFFFFFFFF AND PUSH20 0xFFFFFFFFFFFFFFFFFFFFFFFFFFFFFFFFFFFFFFFF AND PUSH2 0x16DB SWAP1 SWAP3 SWAP2 SWAP1 PUSH4 0xFFFFFFFF AND JUMP JUMPDEST PUSH2 0x14C3 PUSH8 0x1F93820476D3F89F PUSH1 0xC0 SHL PUSH2 0x1600 JUMP JUMPDEST DUP2 PUSH1 0x4 PUSH1 0x0 DUP3 DUP3 SLOAD PUSH2 0x14D5 SWAP2 SWAP1 PUSH2 0x1DF1 JUMP JUMPDEST SWAP3 POP POP DUP2 SWAP1 SSTORE POP PUSH2 0x14F0 PUSH8 0x4793231EDAD212CF PUSH1 0xC0 SHL PUSH2 0x1600 JUMP JUMPDEST DUP1 PUSH1 0x3 PUSH1 0x0 DUP3 DUP3 SLOAD PUSH2 0x1502 SWAP2 SWAP1 PUSH2 0x1E25 JUMP JUMPDEST SWAP3 POP POP DUP2 SWAP1 SSTORE POP PUSH2 0x151D PUSH8 0xDF48D36DC46A60CB PUSH1 0xC0 SHL PUSH2 0x1600 JUMP JUMPDEST PUSH2 0x1531 PUSH8 0xB5751D2114588579 PUSH1 0xC0 SHL PUSH2 0x1600 JUMP JUMPDEST PUSH1 0x1 PUSH1 0x0 SWAP1 SLOAD SWAP1 PUSH2 0x100 EXP SWAP1 DIV PUSH20 0xFFFFFFFFFFFFFFFFFFFFFFFFFFFFFFFFFFFFFFFF AND PUSH20 0xFFFFFFFFFFFFFFFFFFFFFFFFFFFFFFFFFFFFFFFF AND PUSH1 0x2 PUSH1 0x0 SWAP1 SLOAD SWAP1 PUSH2 0x100 EXP SWAP1 DIV PUSH20 0xFFFFFFFFFFFFFFFFFFFFFFFFFFFFFFFFFFFFFFFF AND PUSH20 0xFFFFFFFFFFFFFFFFFFFFFFFFFFFFFFFFFFFFFFFF AND CALLER PUSH20 0xFFFFFFFFFFFFFFFFFFFFFFFFFFFFFFFFFFFFFFFF AND PUSH32 0xCD3829A3813DC3CDD188FD3D01DCF3268C16BE2FDD2DD21D0665418816E46062 DUP6 DUP6 PUSH1 0x40 MLOAD PUSH2 0x15EB SWAP3 SWAP2 SWAP1 PUSH2 0x1CA4 JUMP JUMPDEST PUSH1 0x40 MLOAD DUP1 SWAP2 SUB SWAP1 LOG4 PUSH2 0x15FB PUSH2 0x1761 JUMP JUMPDEST SWAP2 SWAP1 POP JUMP JUMPDEST POP JUMP JUMPDEST PUSH1 0x2 PUSH1 0x0 SLOAD SUB PUSH2 0x1648 JUMPI PUSH1 0x40 MLOAD PUSH32 0x8C379A000000000000000000000000000000000000000000000000000000000 DUP2 MSTORE PUSH1 0x4 ADD PUSH2 0x163F SWAP1 PUSH2 0x2217 JUMP JUMPDEST PUSH1 0x40 MLOAD DUP1 SWAP2 SUB SWAP1 REVERT JUMPDEST PUSH1 0x2 PUSH1 0x0 DUP2 SWAP1 SSTORE POP JUMP JUMPDEST PUSH2 0x16D5 DUP5 PUSH4 0x23B872DD PUSH1 0xE0 SHL DUP6 DUP6 DUP6 PUSH1 0x40 MLOAD PUSH1 0x24 ADD PUSH2 0x1673 SWAP4 SWAP3 SWAP2 SWAP1 PUSH2 0x2237 JUMP JUMPDEST PUSH1 0x40 MLOAD PUSH1 0x20 DUP2 DUP4 SUB SUB DUP2 MSTORE SWAP1 PUSH1 0x40 MSTORE SWAP1 PUSH28 0xFFFFFFFFFFFFFFFFFFFFFFFFFFFFFFFFFFFFFFFFFFFFFFFFFFFFFFFF NOT AND PUSH1 0x20 DUP3 ADD DUP1 MLOAD PUSH28 0xFFFFFFFFFFFFFFFFFFFFFFFFFFFFFFFFFFFFFFFFFFFFFFFFFFFFFFFF DUP4 DUP2 DUP4 AND OR DUP4 MSTORE POP POP POP POP PUSH2 0x192A JUMP JUMPDEST POP POP POP POP JUMP JUMPDEST PUSH2 0x175C DUP4 PUSH4 0xA9059CBB PUSH1 0xE0 SHL DUP5 DUP5 PUSH1 0x40 MLOAD PUSH1 0x24 ADD PUSH2 0x16FA SWAP3 SWAP2 SWAP1 PUSH2 0x226E JUMP JUMPDEST PUSH1 0x40 MLOAD PUSH1 0x20 DUP2 DUP4 SUB SUB DUP2 MSTORE SWAP1 PUSH1 0x40 MSTORE SWAP1 PUSH28 0xFFFFFFFFFFFFFFFFFFFFFFFFFFFFFFFFFFFFFFFFFFFFFFFFFFFFFFFF NOT AND PUSH1 0x20 DUP3 ADD DUP1 MLOAD PUSH28 0xFFFFFFFFFFFFFFFFFFFFFFFFFFFFFFFFFFFFFFFFFFFFFFFFFFFFFFFF DUP4 DUP2 DUP4 AND OR DUP4 MSTORE POP POP POP POP PUSH2 0x192A JUMP JUMPDEST POP POP POP JUMP JUMPDEST PUSH1 0x1 PUSH1 0x0 DUP2 SWAP1 SSTORE POP JUMP JUMPDEST PUSH1 0x0 PUSH2 0x1781 PUSH8 0x9C5E3F141A54140 PUSH1 0xC0 SHL PUSH2 0x1600 JUMP JUMPDEST PUSH2 0x1795 PUSH8 0xC57C62822CE8735E PUSH1 0xC0 SHL PUSH2 0x1600 JUMP JUMPDEST PUSH2 0x17A9 PUSH8 0x68E0DCAF2209BD32 PUSH1 0xC0 SHL PUSH2 0x1600 JUMP JUMPDEST PUSH1 0x3 DUP3 GT ISZERO PUSH2 0x18AE JUMPI PUSH2 0x17C6 PUSH8 0x5211DE116B8ACE30 PUSH1 0xC0 SHL PUSH2 0x1600 JUMP JUMPDEST PUSH2 0x17DA PUSH8 0x36E434EC7E1080AC PUSH1 0xC0 SHL PUSH2 0x1600 JUMP JUMPDEST DUP2 SWAP1 POP PUSH2 0x17F1 PUSH8 0x383EA8B3463C53D7 PUSH1 0xC0 SHL PUSH2 0x1600 JUMP JUMPDEST PUSH2 0x1805 PUSH8 0x23DE50E2367EDC8B PUSH1 0xC0 SHL PUSH2 0x1600 JUMP JUMPDEST PUSH1 0x0 PUSH1 0x1 PUSH1 0x2 DUP5 PUSH2 0x1816 SWAP2 SWAP1 PUSH2 0x1FB3 JUMP JUMPDEST PUSH2 0x1820 SWAP2 SWAP1 PUSH2 0x1DF1 JUMP JUMPDEST SWAP1 POP PUSH2 0x1836 PUSH8 0x9D49E572BBF8F740 PUSH1 0xC0 SHL PUSH2 0x1600 JUMP JUMPDEST PUSH2 0x184A PUSH8 0xC08488370C4C61D4 PUSH1 0xC0 SHL PUSH2 0x1600 JUMP JUMPDEST JUMPDEST DUP2 DUP2 LT ISZERO PUSH2 0x18A8 JUMPI PUSH2 0x1867 PUSH8 0x4EF366D251689B05 PUSH1 0xC0 SHL PUSH2 0x1600 JUMP JUMPDEST DUP1 SWAP2 POP PUSH2 0x187E PUSH8 0xE4725307C1226278 PUSH1 0xC0 SHL PUSH2 0x1600 JUMP JUMPDEST PUSH1 0x2 DUP2 DUP3 DUP6 PUSH2 0x188D SWAP2 SWAP1 PUSH2 0x1FB3 JUMP JUMPDEST PUSH2 0x1897 SWAP2 SWAP1 PUSH2 0x1DF1 JUMP JUMPDEST PUSH2 0x18A1 SWAP2 SWAP1 PUSH2 0x1FB3 JUMP JUMPDEST SWAP1 POP PUSH2 0x184B JUMP JUMPDEST POP PUSH2 0x1925 JUMP JUMPDEST PUSH2 0x18C2 PUSH8 0x4E198DB302260C75 PUSH1 0xC0 SHL PUSH2 0x1600 JUMP JUMPDEST PUSH2 0x18D6 PUSH8 0x330E18E8489C545E PUSH1 0xC0 SHL PUSH2 0x1600 JUMP JUMPDEST PUSH1 0x0 DUP3 EQ PUSH2 0x190F JUMPI PUSH2 0x18F2 PUSH8 0x62B9D595EB09F232 PUSH1 0xC0 SHL PUSH2 0x1600 JUMP JUMPDEST PUSH2 0x1906 PUSH8 0x4A346FAB76C7AC1F PUSH1 0xC0 SHL PUSH2 0x1600 JUMP JUMPDEST PUSH1 0x1 SWAP1 POP PUSH2 0x1924 JUMP JUMPDEST PUSH2 0x1923 PUSH8 0x520E24A6206CE8BA PUSH1 0xC0 SHL PUSH2 0x1600 JUMP JUMPDEST JUMPDEST JUMPDEST SWAP2 SWAP1 POP JUMP JUMPDEST PUSH1 0x0 PUSH2 0x198C DUP3 PUSH1 0x40 MLOAD DUP1 PUSH1 0x40 ADD PUSH1 0x40 MSTORE DUP1 PUSH1 0x20 DUP2 MSTORE PUSH1 0x20 ADD PUSH32 0x5361666545524332303A206C6F772D6C6576656C2063616C6C206661696C6564 DUP2 MSTORE POP DUP6 PUSH20 0xFFFFFFFFFFFFFFFFFFFFFFFFFFFFFFFFFFFFFFFF AND PUSH2 0x19F2 SWAP1 SWAP3 SWAP2 SWAP1 PUSH4 0xFFFFFFFF AND JUMP JUMPDEST SWAP1 POP PUSH1 0x0 DUP2 MLOAD EQ DUP1 PUSH2 0x19AE JUMPI POP DUP1 DUP1 PUSH1 0x20 ADD SWAP1 MLOAD DUP2 ADD SWAP1 PUSH2 0x19AD SWAP2 SWAP1 PUSH2 0x22CF JUMP JUMPDEST JUMPDEST PUSH2 0x19ED JUMPI PUSH1 0x40 MLOAD PUSH32 0x8C379A000000000000000000000000000000000000000000000000000000000 DUP2 MSTORE PUSH1 0x4 ADD PUSH2 0x19E4 SWAP1 PUSH2 0x236E JUMP JUMPDEST PUSH1 0x40 MLOAD DUP1 SWAP2 SUB SWAP1 REVERT JUMPDEST POP POP POP JUMP JUMPDEST PUSH1 0x60 PUSH2 0x1A01 DUP5 DUP5 PUSH1 0x0 DUP6 PUSH2 0x1A0A JUMP JUMPDEST SWAP1 POP SWAP4 SWAP3 POP POP POP JUMP JUMPDEST PUSH1 0x60 DUP3 SELFBALANCE LT ISZERO PUSH2 0x1A4F JUMPI PUSH1 0x40 MLOAD PUSH32 0x8C379A000000000000000000000000000000000000000000000000000000000 DUP2 MSTORE PUSH1 0x4 ADD PUSH2 0x1A46 SWAP1 PUSH2 0x2400 JUMP JUMPDEST PUSH1 0x40 MLOAD DUP1 SWAP2 SUB SWAP1 REVERT JUMPDEST PUSH1 0x0 DUP1 DUP7 PUSH20 0xFFFFFFFFFFFFFFFFFFFFFFFFFFFFFFFFFFFFFFFF AND DUP6 DUP8 PUSH1 0x40 MLOAD PUSH2 0x1A78 SWAP2 SWAP1 PUSH2 0x2491 JUMP JUMPDEST PUSH1 0x0 PUSH1 0x40 MLOAD DUP1 DUP4 SUB DUP2 DUP6 DUP8 GAS CALL SWAP3 POP POP POP RETURNDATASIZE DUP1 PUSH1 0x0 DUP2 EQ PUSH2 0x1AB5 JUMPI PUSH1 0x40 MLOAD SWAP2 POP PUSH1 0x1F NOT PUSH1 0x3F RETURNDATASIZE ADD AND DUP3 ADD PUSH1 0x40 MSTORE RETURNDATASIZE DUP3 MSTORE RETURNDATASIZE PUSH1 0x0 PUSH1 0x20 DUP5 ADD RETURNDATACOPY PUSH2 0x1ABA JUMP JUMPDEST PUSH1 0x60 SWAP2 POP JUMPDEST POP SWAP2 POP SWAP2 POP PUSH2 0x1ACB DUP8 DUP4 DUP4 DUP8 PUSH2 0x1AD7 JUMP JUMPDEST SWAP3 POP POP POP SWAP5 SWAP4 POP POP POP POP JUMP JUMPDEST PUSH1 0x60 DUP4 ISZERO PUSH2 0x1B39 JUMPI PUSH1 0x0 DUP4 MLOAD SUB PUSH2 0x1B31 JUMPI PUSH2 0x1AF1 DUP6 PUSH2 0x1B4C JUMP JUMPDEST PUSH2 0x1B30 JUMPI PUSH1 0x40 MLOAD PUSH32 0x8C379A000000000000000000000000000000000000000000000000000000000 DUP2 MSTORE PUSH1 0x4 ADD PUSH2 0x1B27 SWAP1 PUSH2 0x24F4 JUMP JUMPDEST PUSH1 0x40 MLOAD DUP1 SWAP2 SUB SWAP1 REVERT JUMPDEST JUMPDEST DUP3 SWAP1 POP PUSH2 0x1B44 JUMP JUMPDEST PUSH2 0x1B43 DUP4 DUP4 PUSH2 0x1B6F JUMP JUMPDEST JUMPDEST SWAP5 SWAP4 POP POP POP POP JUMP JUMPDEST PUSH1 0x0 DUP1 DUP3 PUSH20 0xFFFFFFFFFFFFFFFFFFFFFFFFFFFFFFFFFFFFFFFF AND EXTCODESIZE GT SWAP1 POP SWAP2 SWAP1 POP JUMP JUMPDEST PUSH1 0x0 DUP3 MLOAD GT ISZERO PUSH2 0x1B82 JUMPI DUP2 MLOAD DUP1 DUP4 PUSH1 0x20 ADD REVERT JUMPDEST DUP1 PUSH1 0x40 MLOAD PUSH32 0x8C379A000000000000000000000000000000000000000000000000000000000 DUP2 MSTORE PUSH1 0x4 ADD PUSH2 0x1BB6 SWAP2 SWAP1 PUSH2 0x2569 JUMP JUMPDEST PUSH1 0x40 MLOAD DUP1 SWAP2 SUB SWAP1 REVERT JUMPDEST PUSH1 0x0 DUP1 REVERT JUMPDEST PUSH1 0x0 DUP2 SWAP1 POP SWAP2 SWAP1 POP JUMP JUMPDEST PUSH2 0x1BD7 DUP2 PUSH2 0x1BC4 JUMP JUMPDEST DUP2 EQ PUSH2 0x1BE2 JUMPI PUSH1 0x0 DUP1 REVERT JUMPDEST POP JUMP JUMPDEST PUSH1 0x0 DUP2 CALLDATALOAD SWAP1 POP PUSH2 0x1BF4 DUP2 PUSH2 0x1BCE JUMP JUMPDEST SWAP3 SWAP2 POP POP JUMP JUMPDEST PUSH1 0x0 PUSH1 0x20 DUP3 DUP5 SUB SLT ISZERO PUSH2 0x1C10 JUMPI PUSH2 0x1C0F PUSH2 0x1BBF JUMP JUMPDEST JUMPDEST PUSH1 0x0 PUSH2 0x1C1E DUP5 DUP3 DUP6 ADD PUSH2 0x1BE5 JUMP JUMPDEST SWAP2 POP POP SWAP3 SWAP2 POP POP JUMP JUMPDEST PUSH2 0x1C30 DUP2 PUSH2 0x1BC4 JUMP JUMPDEST DUP3 MSTORE POP POP JUMP JUMPDEST PUSH1 0x0 PUSH1 0x20 DUP3 ADD SWAP1 POP PUSH2 0x1C4B PUSH1 0x0 DUP4 ADD DUP5 PUSH2 0x1C27 JUMP JUMPDEST SWAP3 SWAP2 POP POP JUMP JUMPDEST PUSH1 0x0 DUP1 PUSH1 0x0 PUSH1 0x60 DUP5 DUP7 SUB SLT ISZERO PUSH2 0x1C6A JUMPI PUSH2 0x1C69 PUSH2 0x1BBF JUMP JUMPDEST JUMPDEST PUSH1 0x0 PUSH2 0x1C78 DUP7 DUP3 DUP8 ADD PUSH2 0x1BE5 JUMP JUMPDEST SWAP4 POP POP PUSH1 0x20 PUSH2 0x1C89 DUP7 DUP3 DUP8 ADD PUSH2 0x1BE5 JUMP JUMPDEST SWAP3 POP POP PUSH1 0x40 PUSH2 0x1C9A DUP7 DUP3 DUP8 ADD PUSH2 0x1BE5 JUMP JUMPDEST SWAP2 POP POP SWAP3 POP SWAP3 POP SWAP3 JUMP JUMPDEST PUSH1 0x0 PUSH1 0x40 DUP3 ADD SWAP1 POP PUSH2 0x1CB9 PUSH1 0x0 DUP4 ADD DUP6 PUSH2 0x1C27 JUMP JUMPDEST PUSH2 0x1CC6 PUSH1 0x20 DUP4 ADD DUP5 PUSH2 0x1C27 JUMP JUMPDEST SWAP4 SWAP3 POP POP POP JUMP JUMPDEST PUSH1 0x0 PUSH20 0xFFFFFFFFFFFFFFFFFFFFFFFFFFFFFFFFFFFFFFFF DUP3 AND SWAP1 POP SWAP2 SWAP1 POP JUMP JUMPDEST PUSH1 0x0 PUSH2 0x1CF8 DUP3 PUSH2 0x1CCD JUMP JUMPDEST SWAP1 POP SWAP2 SWAP1 POP JUMP JUMPDEST PUSH2 0x1D08 DUP2 PUSH2 0x1CED JUMP JUMPDEST DUP3 MSTORE POP POP JUMP JUMPDEST PUSH1 0x0 PUSH1 0x20 DUP3 ADD SWAP1 POP PUSH2 0x1D23 PUSH1 0x0 DUP4 ADD DUP5 PUSH2 0x1CFF JUMP JUMPDEST SWAP3 SWAP2 POP POP JUMP JUMPDEST PUSH1 0x0 DUP1 PUSH1 0x40 DUP4 DUP6 SUB SLT ISZERO PUSH2 0x1D40 JUMPI PUSH2 0x1D3F PUSH2 0x1BBF JUMP JUMPDEST JUMPDEST PUSH1 0x0 PUSH2 0x1D4E DUP6 DUP3 DUP7 ADD PUSH2 0x1BE5 JUMP JUMPDEST SWAP3 POP POP PUSH1 0x20 PUSH2 0x1D5F DUP6 DUP3 DUP7 ADD PUSH2 0x1BE5 JUMP JUMPDEST SWAP2 POP POP SWAP3 POP SWAP3 SWAP1 POP JUMP JUMPDEST PUSH2 0x1D72 DUP2 PUSH2 0x1CED JUMP JUMPDEST DUP2 EQ PUSH2 0x1D7D JUMPI PUSH1 0x0 DUP1 REVERT JUMPDEST POP JUMP JUMPDEST PUSH1 0x0 DUP2 CALLDATALOAD SWAP1 POP PUSH2 0x1D8F DUP2 PUSH2 0x1D69 JUMP JUMPDEST SWAP3 SWAP2 POP POP JUMP JUMPDEST PUSH1 0x0 PUSH1 0x20 DUP3 DUP5 SUB SLT ISZERO PUSH2 0x1DAB JUMPI PUSH2 0x1DAA PUSH2 0x1BBF JUMP JUMPDEST JUMPDEST PUSH1 0x0 PUSH2 0x1DB9 DUP5 DUP3 DUP6 ADD PUSH2 0x1D80 JUMP JUMPDEST SWAP2 POP POP SWAP3 SWAP2 POP POP JUMP JUMPDEST PUSH32 0x4E487B7100000000000000000000000000000000000000000000000000000000 PUSH1 0x0 MSTORE PUSH1 0x11 PUSH1 0x4 MSTORE PUSH1 0x24 PUSH1 0x0 REVERT JUMPDEST PUSH1 0x0 PUSH2 0x1DFC DUP3 PUSH2 0x1BC4 JUMP JUMPDEST SWAP2 POP PUSH2 0x1E07 DUP4 PUSH2 0x1BC4 JUMP JUMPDEST SWAP3 POP DUP3 DUP3 ADD SWAP1 POP DUP1 DUP3 GT ISZERO PUSH2 0x1E1F JUMPI PUSH2 0x1E1E PUSH2 0x1DC2 JUMP JUMPDEST JUMPDEST SWAP3 SWAP2 POP POP JUMP JUMPDEST PUSH1 0x0 PUSH2 0x1E30 DUP3 PUSH2 0x1BC4 JUMP JUMPDEST SWAP2 POP PUSH2 0x1E3B DUP4 PUSH2 0x1BC4 JUMP JUMPDEST SWAP3 POP DUP3 DUP3 SUB SWAP1 POP DUP2 DUP2 GT ISZERO PUSH2 0x1E53 JUMPI PUSH2 0x1E52 PUSH2 0x1DC2 JUMP JUMPDEST JUMPDEST SWAP3 SWAP2 POP POP JUMP JUMPDEST PUSH1 0x0 DUP3 DUP3 MSTORE PUSH1 0x20 DUP3 ADD SWAP1 POP SWAP3 SWAP2 POP POP JUMP JUMPDEST PUSH32 0x5A65726F20696E70757400000000000000000000000000000000000000000000 PUSH1 0x0 DUP3 ADD MSTORE POP JUMP JUMPDEST PUSH1 0x0 PUSH2 0x1EA0 PUSH1 0xA DUP4 PUSH2 0x1E59 JUMP JUMPDEST SWAP2 POP PUSH2 0x1EAB DUP3 PUSH2 0x1E6A JUMP JUMPDEST PUSH1 0x20 DUP3 ADD SWAP1 POP SWAP2 SWAP1 POP JUMP JUMPDEST PUSH1 0x0 PUSH1 0x20 DUP3 ADD SWAP1 POP DUP2 DUP2 SUB PUSH1 0x0 DUP4 ADD MSTORE PUSH2 0x1ECF DUP2 PUSH2 0x1E93 JUMP JUMPDEST SWAP1 POP SWAP2 SWAP1 POP JUMP JUMPDEST PUSH32 0x4E6F206C69717569646974790000000000000000000000000000000000000000 PUSH1 0x0 DUP3 ADD MSTORE POP JUMP JUMPDEST PUSH1 0x0 PUSH2 0x1F0C PUSH1 0xC DUP4 PUSH2 0x1E59 JUMP JUMPDEST SWAP2 POP PUSH2 0x1F17 DUP3 PUSH2 0x1ED6 JUMP JUMPDEST PUSH1 0x20 DUP3 ADD SWAP1 POP SWAP2 SWAP1 POP JUMP JUMPDEST PUSH1 0x0 PUSH1 0x20 DUP3 ADD SWAP1 POP DUP2 DUP2 SUB PUSH1 0x0 DUP4 ADD MSTORE PUSH2 0x1F3B DUP2 PUSH2 0x1EFF JUMP JUMPDEST SWAP1 POP SWAP2 SWAP1 POP JUMP JUMPDEST PUSH1 0x0 PUSH2 0x1F4D DUP3 PUSH2 0x1BC4 JUMP JUMPDEST SWAP2 POP PUSH2 0x1F58 DUP4 PUSH2 0x1BC4 JUMP JUMPDEST SWAP3 POP DUP3 DUP3 MUL PUSH2 0x1F66 DUP2 PUSH2 0x1BC4 JUMP JUMPDEST SWAP2 POP DUP3 DUP3 DIV DUP5 EQ DUP4 ISZERO OR PUSH2 0x1F7D JUMPI PUSH2 0x1F7C PUSH2 0x1DC2 JUMP JUMPDEST JUMPDEST POP SWAP3 SWAP2 POP POP JUMP JUMPDEST PUSH32 0x4E487B7100000000000000000000000000000000000000000000000000000000 PUSH1 0x0 MSTORE PUSH1 0x12 PUSH1 0x4 MSTORE PUSH1 0x24 PUSH1 0x0 REVERT JUMPDEST PUSH1 0x0 PUSH2 0x1FBE DUP3 PUSH2 0x1BC4 JUMP JUMPDEST SWAP2 POP PUSH2 0x1FC9 DUP4 PUSH2 0x1BC4 JUMP JUMPDEST SWAP3 POP DUP3 PUSH2 0x1FD9 JUMPI PUSH2 0x1FD8 PUSH2 0x1F84 JUMP JUMPDEST JUMPDEST DUP3 DUP3 DIV SWAP1 POP SWAP3 SWAP2 POP POP JUMP JUMPDEST PUSH32 0x5A65726F206C6971756964697479000000000000000000000000000000000000 PUSH1 0x0 DUP3 ADD MSTORE POP JUMP JUMPDEST PUSH1 0x0 PUSH2 0x201A PUSH1 0xE DUP4 PUSH2 0x1E59 JUMP JUMPDEST SWAP2 POP PUSH2 0x2025 DUP3 PUSH2 0x1FE4 JUMP JUMPDEST PUSH1 0x20 DUP3 ADD SWAP1 POP SWAP2 SWAP1 POP JUMP JUMPDEST PUSH1 0x0 PUSH1 0x20 DUP3 ADD SWAP1 POP DUP2 DUP2 SUB PUSH1 0x0 DUP4 ADD MSTORE PUSH2 0x2049 DUP2 PUSH2 0x200D JUMP JUMPDEST SWAP1 POP SWAP2 SWAP1 POP JUMP JUMPDEST PUSH32 0x4E6F7420656E6F756768206C6971756964697479000000000000000000000000 PUSH1 0x0 DUP3 ADD MSTORE POP JUMP JUMPDEST PUSH1 0x0 PUSH2 0x2086 PUSH1 0x14 DUP4 PUSH2 0x1E59 JUMP JUMPDEST SWAP2 POP PUSH2 0x2091 DUP3 PUSH2 0x2050 JUMP JUMPDEST PUSH1 0x20 DUP3 ADD SWAP1 POP SWAP2 SWAP1 POP JUMP JUMPDEST PUSH1 0x0 PUSH1 0x20 DUP3 ADD SWAP1 POP DUP2 DUP2 SUB PUSH1 0x0 DUP4 ADD MSTORE PUSH2 0x20B5 DUP2 PUSH2 0x2079 JUMP JUMPDEST SWAP1 POP SWAP2 SWAP1 POP JUMP JUMPDEST PUSH1 0x0 PUSH1 0x60 DUP3 ADD SWAP1 POP PUSH2 0x20D1 PUSH1 0x0 DUP4 ADD DUP7 PUSH2 0x1C27 JUMP JUMPDEST PUSH2 0x20DE PUSH1 0x20 DUP4 ADD DUP6 PUSH2 0x1C27 JUMP JUMPDEST PUSH2 0x20EB PUSH1 0x40 DUP4 ADD DUP5 PUSH2 0x1C27 JUMP JUMPDEST SWAP5 SWAP4 POP POP POP POP JUMP JUMPDEST PUSH32 0x5A65726F20616D6F756E74000000000000000000000000000000000000000000 PUSH1 0x0 DUP3 ADD MSTORE POP JUMP JUMPDEST PUSH1 0x0 PUSH2 0x2129 PUSH1 0xB DUP4 PUSH2 0x1E59 JUMP JUMPDEST SWAP2 POP PUSH2 0x2134 DUP3 PUSH2 0x20F3 JUMP JUMPDEST PUSH1 0x20 DUP3 ADD SWAP1 POP SWAP2 SWAP1 POP JUMP JUMPDEST PUSH1 0x0 PUSH1 0x20 DUP3 ADD SWAP1 POP DUP2 DUP2 SUB PUSH1 0x0 DUP4 ADD MSTORE PUSH2 0x2158 DUP2 PUSH2 0x211C JUMP JUMPDEST SWAP1 POP SWAP2 SWAP1 POP JUMP JUMPDEST PUSH32 0x526174696F206D69736D61746368000000000000000000000000000000000000 PUSH1 0x0 DUP3 ADD MSTORE POP JUMP JUMPDEST PUSH1 0x0 PUSH2 0x2195 PUSH1 0xE DUP4 PUSH2 0x1E59 JUMP JUMPDEST SWAP2 POP PUSH2 0x21A0 DUP3 PUSH2 0x215F JUMP JUMPDEST PUSH1 0x20 DUP3 ADD SWAP1 POP SWAP2 SWAP1 POP JUMP JUMPDEST PUSH1 0x0 PUSH1 0x20 DUP3 ADD SWAP1 POP DUP2 DUP2 SUB PUSH1 0x0 DUP4 ADD MSTORE PUSH2 0x21C4 DUP2 PUSH2 0x2188 JUMP JUMPDEST SWAP1 POP SWAP2 SWAP1 POP JUMP JUMPDEST PUSH32 0x5265656E7472616E637947756172643A207265656E7472616E742063616C6C00 PUSH1 0x0 DUP3 ADD MSTORE POP JUMP JUMPDEST PUSH1 0x0 PUSH2 0x2201 PUSH1 0x1F DUP4 PUSH2 0x1E59 JUMP JUMPDEST SWAP2 POP PUSH2 0x220C DUP3 PUSH2 0x21CB JUMP JUMPDEST PUSH1 0x20 DUP3 ADD SWAP1 POP SWAP2 SWAP1 POP JUMP JUMPDEST PUSH1 0x0 PUSH1 0x20 DUP3 ADD SWAP1 POP DUP2 DUP2 SUB PUSH1 0x0 DUP4 ADD MSTORE PUSH2 0x2230 DUP2 PUSH2 0x21F4 JUMP JUMPDEST SWAP1 POP SWAP2 SWAP1 POP JUMP JUMPDEST PUSH1 0x0 PUSH1 0x60 DUP3 ADD SWAP1 POP PUSH2 0x224C PUSH1 0x0 DUP4 ADD DUP7 PUSH2 0x1CFF JUMP JUMPDEST PUSH2 0x2259 PUSH1 0x20 DUP4 ADD DUP6 PUSH2 0x1CFF JUMP JUMPDEST PUSH2 0x2266 PUSH1 0x40 DUP4 ADD DUP5 PUSH2 0x1C27 JUMP JUMPDEST SWAP5 SWAP4 POP POP POP POP JUMP JUMPDEST PUSH1 0x0 PUSH1 0x40 DUP3 ADD SWAP1 POP PUSH2 0x2283 PUSH1 0x0 DUP4 ADD DUP6 PUSH2 0x1CFF JUMP JUMPDEST PUSH2 0x2290 PUSH1 0x20 DUP4 ADD DUP5 PUSH2 0x1C27 JUMP JUMPDEST SWAP4 SWAP3 POP POP POP JUMP JUMPDEST PUSH1 0x0 DUP2 ISZERO ISZERO SWAP1 POP SWAP2 SWAP1 POP JUMP JUMPDEST PUSH2 0x22AC DUP2 PUSH2 0x2297 JUMP JUMPDEST DUP2 EQ PUSH2 0x22B7 JUMPI PUSH1 0x0 DUP1 REVERT JUMPDEST POP JUMP JUMPDEST PUSH1 0x0 DUP2 MLOAD SWAP1 POP PUSH2 0x22C9 DUP2 PUSH2 0x22A3 JUMP JUMPDEST SWAP3 SWAP2 POP POP JUMP JUMPDEST PUSH1 0x0 PUSH1 0x20 DUP3 DUP5 SUB SLT ISZERO PUSH2 0x22E5 JUMPI PUSH2 0x22E4 PUSH2 0x1BBF JUMP JUMPDEST JUMPDEST PUSH1 0x0 PUSH2 0x22F3 DUP5 DUP3 DUP6 ADD PUSH2 0x22BA JUMP JUMPDEST SWAP2 POP POP SWAP3 SWAP2 POP POP JUMP JUMPDEST PUSH32 0x5361666545524332303A204552433230206F7065726174696F6E20646964206E PUSH1 0x0 DUP3 ADD MSTORE PUSH32 0x6F74207375636365656400000000000000000000000000000000000000000000 PUSH1 0x20 DUP3 ADD MSTORE POP JUMP JUMPDEST PUSH1 0x0 PUSH2 0x2358 PUSH1 0x2A DUP4 PUSH2 0x1E59 JUMP JUMPDEST SWAP2 POP PUSH2 0x2363 DUP3 PUSH2 0x22FC JUMP JUMPDEST PUSH1 0x40 DUP3 ADD SWAP1 POP SWAP2 SWAP1 POP JUMP JUMPDEST PUSH1 0x0 PUSH1 0x20 DUP3 ADD SWAP1 POP DUP2 DUP2 SUB PUSH1 0x0 DUP4 ADD MSTORE PUSH2 0x2387 DUP2 PUSH2 0x234B JUMP JUMPDEST SWAP1 POP SWAP2 SWAP1 POP JUMP JUMPDEST PUSH32 0x416464726573733A20696E73756666696369656E742062616C616E636520666F PUSH1 0x0 DUP3 ADD MSTORE PUSH32 0x722063616C6C0000000000000000000000000000000000000000000000000000 PUSH1 0x20 DUP3 ADD MSTORE POP JUMP JUMPDEST PUSH1 0x0 PUSH2 0x23EA PUSH1 0x26 DUP4 PUSH2 0x1E59 JUMP JUMPDEST SWAP2 POP PUSH2 0x23F5 DUP3 PUSH2 0x238E JUMP JUMPDEST PUSH1 0x40 DUP3 ADD SWAP1 POP SWAP2 SWAP1 POP JUMP JUMPDEST PUSH1 0x0 PUSH1 0x20 DUP3 ADD SWAP1 POP DUP2 DUP2 SUB PUSH1 0x0 DUP4 ADD MSTORE PUSH2 0x2419 DUP2 PUSH2 0x23DD JUMP JUMPDEST SWAP1 POP SWAP2 SWAP1 POP JUMP JUMPDEST PUSH1 0x0 DUP2 MLOAD SWAP1 POP SWAP2 SWAP1 POP JUMP JUMPDEST PUSH1 0x0 DUP2 SWAP1 POP SWAP3 SWAP2 POP POP JUMP JUMPDEST PUSH1 0x0 JUMPDEST DUP4 DUP2 LT ISZERO PUSH2 0x2454 JUMPI DUP1 DUP3 ADD MLOAD DUP2 DUP5 ADD MSTORE PUSH1 0x20 DUP2 ADD SWAP1 POP PUSH2 0x2439 JUMP JUMPDEST PUSH1 0x0 DUP5 DUP5 ADD MSTORE POP POP POP POP JUMP JUMPDEST PUSH1 0x0 PUSH2 0x246B DUP3 PUSH2 0x2420 JUMP JUMPDEST PUSH2 0x2475 DUP2 DUP6 PUSH2 0x242B JUMP JUMPDEST SWAP4 POP PUSH2 0x2485 DUP2 DUP6 PUSH1 0x20 DUP7 ADD PUSH2 0x2436 JUMP JUMPDEST DUP1 DUP5 ADD SWAP2 POP POP SWAP3 SWAP2 POP POP JUMP JUMPDEST PUSH1 0x0 PUSH2 0x249D DUP3 DUP5 PUSH2 0x2460 JUMP JUMPDEST SWAP2 POP DUP2 SWAP1 POP SWAP3 SWAP2 POP POP JUMP JUMPDEST PUSH32 0x416464726573733A2063616C6C20746F206E6F6E2D636F6E7472616374000000 PUSH1 0x0 DUP3 ADD MSTORE POP JUMP JUMPDEST PUSH1 0x0 PUSH2 0x24DE PUSH1 0x1D DUP4 PUSH2 0x1E59 JUMP JUMPDEST SWAP2 POP PUSH2 0x24E9 DUP3 PUSH2 0x24A8 JUMP JUMPDEST PUSH1 0x20 DUP3 ADD SWAP1 POP SWAP2 SWAP1 POP JUMP JUMPDEST PUSH1 0x0 PUSH1 0x20 DUP3 ADD SWAP1 POP DUP2 DUP2 SUB PUSH1 0x0 DUP4 ADD MSTORE PUSH2 0x250D DUP2 PUSH2 0x24D1 JUMP JUMPDEST SWAP1 POP SWAP2 SWAP1 POP JUMP JUMPDEST PUSH1 0x0 DUP2 MLOAD SWAP1 POP SWAP2 SWAP1 POP JUMP JUMPDEST PUSH1 0x0 PUSH1 0x1F NOT PUSH1 0x1F DUP4 ADD AND SWAP1 POP SWAP2 SWAP1 POP JUMP JUMPDEST PUSH1 0x0 PUSH2 0x253B DUP3 PUSH2 0x2514 JUMP JUMPDEST PUSH2 0x2545 DUP2 DUP6 PUSH2 0x1E59 JUMP JUMPDEST SWAP4 POP PUSH2 0x2555 DUP2 DUP6 PUSH1 0x20 DUP7 ADD PUSH2 0x2436 JUMP JUMPDEST PUSH2 0x255E DUP2 PUSH2 0x251F JUMP JUMPDEST DUP5 ADD SWAP2 POP POP SWAP3 SWAP2 POP POP JUMP JUMPDEST PUSH1 0x0 PUSH1 0x20 DUP3 ADD SWAP1 POP DUP2 DUP2 SUB PUSH1 0x0 DUP4 ADD MSTORE PUSH2 0x2583 DUP2 DUP5 PUSH2 0x2530 JUMP JUMPDEST SWAP1 POP SWAP3 SWAP2 POP POP JUMP INVALID LOG2 PUSH5 0x6970667358 0x22 SLT KECCAK256 EQ 0xF7 PUSH9 0x9DC49C99DC4A16F354 SSTORE DUP10 0xA7 CODECOPY PUSH13 0x229C2966E3CAEFC4EA616F1005 0xCC PUSH20 0x64736F6C63430008130033000000000000000000 "},"methodIdentifiers":{"addLiquidity(uint256,uint256)":"9cd441da","getAmountOut(uint256,uint256,uint256)":"054d50d4","getPrice()":"98d5fdca","getReserves()":"0902f1ac","liquidity(address)":"b8c876b1","removeLiquidity(uint256)":"9c8f9f23","reserveA()":"dc5fa6c5","reserveB()":"19e36f3b","swapAForB(uint256)":"03102091","swapBForA(uint256)":"e619a498","tokenA()":"0fc63d10","tokenB()":"5f64b55b","totalLiquidity()":"15770f92"}}}}}