{
  "_format": "hh-sol-artifact-1",
  "contractName": "DEX",
  "sourceName": "contracts/DEX.sol",
  "abi": [
    {
      "inputs": [
        {
          "internalType": "address",
          "name": "_tokenA",
          "type": "address"
        },
        {
          "internalType": "address",
          "name": "_tokenB",
          "type": "address"
        }
      ],
      "stateMutability": "nonpayable",
      "type": "constructor"
    },
    {
      "anonymous": false,
      "inputs": [
        {
          "indexed": true,
          "internalType": "address",
          "name": "provider",
          "type": "address"
        },
        {
          "indexed": false,
          "internalType": "uint256",
          "name": "amountA",
          "type": "uint256"
        },
        {
          "indexed": false,
          "internalType": "uint256",
          "name": "amountB",
          "type": "uint256"
        },
        {
          "indexed": false,
          "internalType": "uint256",
          "name": "liquidityMinted",
          "type": "uint256"
        }
      ],
      "name": "LiquidityAdded",
      "type": "event"
    },
    {
      "anonymous": false,
      "inputs": [
        {
          "indexed": true,
          "internalType": "address",
          "name": "provider",
          "type": "address"
        },
        {
          "indexed": false,
          "internalType": "uint256",
          "name": "amountA",
          "type": "uint256"
        },
        {
          "indexed": false,
          "internalType": "uint256",
          "name": "amountB",
          "type": "uint256"
        },
        {
          "indexed": false,
          "internalType": "uint256",
          "name": "liquidityBurned",
          "type": "uint256"
        }
      ],
      "name": "LiquidityRemoved",
      "type": "event"
    },
    {
      "anonymous": false,
      "inputs": [
        {
          "indexed": true,
          "internalType": "address",
          "name": "trader",
          "type": "address"
        },
        {
          "indexed": true,
          "internalType": "address",
          "name": "tokenIn",
          "type": "address"
        },
        {
          "indexed": true,
          "internalType": "address",
          "name": "tokenOut",
          "type": "address"
        },
        {
          "indexed": false,
          "internalType": "uint256",
          "name": "amountIn",
          "type": "uint256"
        },
        {
          "indexed": false,
          "internalType": "uint256",
          "name": "amountOut",
          "type": "uint256"
        }
      ],
      "name": "Swap",
      "type": "event"
    },
    {
      "inputs": [
        {
          "internalType": "uint256",
          "name": "amountA",
          "type": "uint256"
        },
        {
          "internalType": "uint256",
          "name": "amountB",
          "type": "uint256"
        }
      ],
      "name": "addLiquidity",
      "outputs": [
        {
          "internalType": "uint256",
          "name": "liquidityMinted",
          "type": "uint256"
        }
      ],
      "stateMutability": "nonpayable",
      "type": "function"
    },
    {
      "inputs": [
        {
          "internalType": "uint256",
          "name": "amountIn",
          "type": "uint256"
        },
        {
          "internalType": "uint256",
          "name": "reserveIn",
          "type": "uint256"
        },
        {
          "internalType": "uint256",
          "name": "reserveOut",
          "type": "uint256"
        }
      ],
      "name": "getAmountOut",
      "outputs": [
        {
          "internalType": "uint256",
          "name": "amountOut",
          "type": "uint256"
        }
      ],
      "stateMutability": "pure",
      "type": "function"
    },
    {
      "inputs": [],
      "name": "getPrice",
      "outputs": [
        {
          "internalType": "uint256",
          "name": "price",
          "type": "uint256"
        }
      ],
      "stateMutability": "view",
      "type": "function"
    },
    {
      "inputs": [],
      "name": "getReserves",
      "outputs": [
        {
          "internalType": "uint256",
          "name": "",
          "type": "uint256"
        },
        {
          "internalType": "uint256",
          "name": "",
          "type": "uint256"
        }
      ],
      "stateMutability": "view",
      "type": "function"
    },
    {
      "inputs": [
        {
          "internalType": "address",
          "name": "",
          "type": "address"
        }
      ],
      "name": "liquidity",
      "outputs": [
        {
          "internalType": "uint256",
          "name": "",
          "type": "uint256"
        }
      ],
      "stateMutability": "view",
      "type": "function"
    },
    {
      "inputs": [
        {
          "internalType": "uint256",
          "name": "liquidityAmount",
          "type": "uint256"
        }
      ],
      "name": "removeLiquidity",
      "outputs": [
        {
          "internalType": "uint256",
          "name": "amountA",
          "type": "uint256"
        },
        {
          "internalType": "uint256",
          "name": "amountB",
          "type": "uint256"
        }
      ],
      "stateMutability": "nonpayable",
      "type": "function"
    },
    {
      "inputs": [],
      "name": "reserveA",
      "outputs": [
        {
          "internalType": "uint256",
          "name": "",
          "type": "uint256"
        }
      ],
      "stateMutability": "view",
      "type": "function"
    },
    {
      "inputs": [],
      "name": "reserveB",
      "outputs": [
        {
          "internalType": "uint256",
          "name": "",
          "type": "uint256"
        }
      ],
      "stateMutability": "view",
      "type": "function"
    },
    {
      "inputs": [
        {
          "internalType": "uint256",
          "name": "amountAIn",
          "type": "uint256"
        }
      ],
      "name": "swapAForB",
      "outputs": [
        {
          "internalType": "uint256",
          "name": "amountBOut",
          "type": "uint256"
        }
      ],
      "stateMutability": "nonpayable",
      "type": "function"
    },
    {
      "inputs": [
        {
          "internalType": "uint256",
          "name": "amountBIn",
          "type": "uint256"
        }
      ],
      "name": "swapBForA",
      "outputs": [
        {
          "internalType": "uint256",
          "name": "amountAOut",
          "type": "uint256"
        }
      ],
      "stateMutability": "nonpayable",
      "type": "function"
    },
    {
      "inputs": [],
      "name": "tokenA",
      "outputs": [
        {
          "internalType": "address",
          "name": "",
          "type": "address"
        }
      ],
      "stateMutability": "view",
      "type": "function"
    },
    {
      "inputs": [],
      "name": "tokenB",
      "outputs": [
        {
          "internalType": "address",
          "name": "",
          "type": "address"
        }
      ],
      "stateMutability": "view",
      "type": "function"
    },
    {
      "inputs": [],
      "name": "totalLiquidity",
      "outputs": [
        {
          "internalType": "uint256",
          "name": "",
          "type": "uint256"
        }
      ],
      "stateMutability": "view",
      "type": "function"
    }
  ],
  "bytecode": "0x60806040523480156200001157600080fd5b5060405162002a9538038062002a95833981810160405281019062000037919062000388565b60016000819055506200005b67735b99c85f381aa760c01b6200031b60201b60201c565b620000776764aae7211ab6c09260c01b6200031b60201b60201c565b6200009367601e86057923728c60c01b6200031b60201b60201c565b620000af676f19f44f64dac67060c01b6200031b60201b60201c565b600073ffffffffffffffffffffffffffffffffffffffff168273ffffffffffffffffffffffffffffffffffffffff16141580156200011a5750600073ffffffffffffffffffffffffffffffffffffffff168173ffffffffffffffffffffffffffffffffffffffff1614155b6200015c576040517f08c379a0000000000000000000000000000000000000000000000000000000008152600401620001539062000430565b60405180910390fd5b6200017867b3b07e3689e90f9760c01b6200031b60201b60201c565b6200019467450e19efc4d7686160c01b6200031b60201b60201c565b620001b067b9321a3c512c60f560c01b6200031b60201b60201c565b620001cc67efe348eb2eee6de460c01b6200031b60201b60201c565b8073ffffffffffffffffffffffffffffffffffffffff168273ffffffffffffffffffffffffffffffffffffffff16036200023d576040517f08c379a00000000000000000000000000000000000000000000000000000000081526004016200023490620004a2565b60405180910390fd5b620002596716322f469713450e60c01b6200031b60201b60201c565b6200027567e2ea5a187084f88360c01b6200031b60201b60201c565b81600160006101000a81548173ffffffffffffffffffffffffffffffffffffffff021916908373ffffffffffffffffffffffffffffffffffffffff160217905550620002d2671065aefffecf03f160c01b6200031b60201b60201c565b80600260006101000a81548173ffffffffffffffffffffffffffffffffffffffff021916908373ffffffffffffffffffffffffffffffffffffffff1602179055505050620004c4565b50565b600080fd5b600073ffffffffffffffffffffffffffffffffffffffff82169050919050565b6000620003508262000323565b9050919050565b620003628162000343565b81146200036e57600080fd5b50565b600081519050620003828162000357565b92915050565b60008060408385031215620003a257620003a16200031e565b5b6000620003b28582860162000371565b9250506020620003c58582860162000371565b9150509250929050565b600082825260208201905092915050565b7f5a65726f20616464726573730000000000000000000000000000000000000000600082015250565b600062000418600c83620003cf565b91506200042582620003e0565b602082019050919050565b600060208201905081810360008301526200044b8162000409565b9050919050565b7f4964656e746963616c20746f6b656e7300000000000000000000000000000000600082015250565b60006200048a601083620003cf565b9150620004978262000452565b602082019050919050565b60006020820190508181036000830152620004bd816200047b565b9050919050565b6125c180620004d46000396000f3fe608060405234801561001057600080fd5b50600436106100cf5760003560e01c80635f64b55b1161008c5780639cd441da116100665780639cd441da1461021a578063b8c876b11461024a578063dc5fa6c51461027a578063e619a49814610298576100cf565b80635f64b55b146101ad57806398d5fdca146101cb5780639c8f9f23146101e9576100cf565b806303102091146100d4578063054d50d4146101045780630902f1ac146101345780630fc63d101461015357806315770f921461017157806319e36f3b1461018f575b600080fd5b6100ee60048036038101906100e99190611bfa565b6102c8565b6040516100fb9190611c36565b60405180910390f35b61011e60048036038101906101199190611c51565b610570565b60405161012b9190611c36565b60405180910390f35b61013c61079b565b60405161014a929190611ca4565b60405180910390f35b61015b6107e8565b6040516101689190611d0e565b60405180910390f35b61017961080e565b6040516101869190611c36565b60405180910390f35b610197610814565b6040516101a49190611c36565b60405180910390f35b6101b561081a565b6040516101c29190611d0e565b60405180910390f35b6101d3610840565b6040516101e09190611c36565b60405180910390f35b61020360048036038101906101fe9190611bfa565b610922565b604051610211929190611ca4565b60405180910390f35b610234600480360381019061022f9190611d29565b610d90565b6040516102419190611c36565b60405180910390f35b610264600480360381019061025f9190611d95565b61133a565b6040516102719190611c36565b60405180910390f35b610282611352565b60405161028f9190611c36565b60405180910390f35b6102b260048036038101906102ad9190611bfa565b611358565b6040516102bf9190611c36565b60405180910390f35b60006102de6712630db4e1402c0660c01b611600565b6102e6611603565b6102fa672470ca780edc102f60c01b611600565b61030e67a6c6a7b816d7c10c60c01b611600565b610322676fd6ad6b50a86eb760c01b611600565b61033182600354600454610570565b905061034767fcf89f619565323a60c01b611600565b61035b672d78754a40e5d4b160c01b611600565b6103aa333084600160009054906101000a900473ffffffffffffffffffffffffffffffffffffffff1673ffffffffffffffffffffffffffffffffffffffff16611652909392919063ffffffff16565b6103be67f704b5f91dbc517a60c01b611600565b6103d2672e2b0302104f5d2660c01b611600565b61041f3382600260009054906101000a900473ffffffffffffffffffffffffffffffffffffffff1673ffffffffffffffffffffffffffffffffffffffff166116db9092919063ffffffff16565b61043367844b7c0562a0ad6660c01b611600565b81600360008282546104459190611df1565b9250508190555061046067f9233b8cceec98a260c01b611600565b80600460008282546104729190611e25565b9250508190555061048d67a7190270043e562260c01b611600565b6104a167962ae589aede901c60c01b611600565b600260009054906101000a900473ffffffffffffffffffffffffffffffffffffffff1673ffffffffffffffffffffffffffffffffffffffff16600160009054906101000a900473ffffffffffffffffffffffffffffffffffffffff1673ffffffffffffffffffffffffffffffffffffffff163373ffffffffffffffffffffffffffffffffffffffff167fcd3829a3813dc3cdd188fd3d01dcf3268c16be2fdd2dd21d0665418816e46062858560405161055b929190611ca4565b60405180910390a461056b611761565b919050565b600061058667cf504e9267127e1960c01b611600565b61059a67fd00cde3cefd1f9460c01b611600565b6105ae6711a9983ed81fb39860c01b611600565b6105c267e012944b18ca8d0660c01b611600565b60008411610605576040517f08c379a00000000000000000000000000000000000000000000000000000000081526004016105fc90611eb6565b60405180910390fd5b6106196747020d1180844a5860c01b611600565b61062d67a289f6d1e1ef9b1860c01b611600565b61064167f72132c81f838c8560c01b611600565b610655675f57d30bfd4895d660c01b611600565b6000831180156106655750600082115b6106a4576040517f08c379a000000000000000000000000000000000000000000000000000000000815260040161069b90611f22565b60405180910390fd5b6106b867966f8e2110209e7860c01b611600565b6106cc6749a685362020e17160c01b611600565b6106e06774d000d77446428d60c01b611600565b60006103e5856106f09190611f42565b905061070667f3a4cccc5cdeeb0e60c01b611600565b61071a67dd7d7b4fee5e8a2460c01b611600565b600083826107289190611f42565b905061073e6767b1553ea830595960c01b611600565b61075267452d496a849c444b60c01b611600565b6000826103e8876107639190611f42565b61076d9190611df1565b905061078367a1260debcaa4980260c01b611600565b808261078f9190611fb3565b93505050509392505050565b6000806107b2675ebc1e36145d74b660c01b611600565b6107c66729b934b83460bb9f60c01b611600565b6107da671bd436b9dabeb2e060c01b611600565b600354600454915091509091565b600160009054906101000a900473ffffffffffffffffffffffffffffffffffffffff1681565b60055481565b60045481565b600260009054906101000a900473ffffffffffffffffffffffffffffffffffffffff1681565b600061085667f376a1034a52fb7e60c01b611600565b61086a678e500d896e06961460c01b611600565b61087e67c6e2be7ade49c94b60c01b611600565b610892677945b785d72a1cfa60c01b611600565b60006003541180156108a657506000600454115b6108e5576040517f08c379a00000000000000000000000000000000000000000000000000000000081526004016108dc90611f22565b60405180910390fd5b6108f967fb80f74426cd0fe460c01b611600565b61090d67bd0b12833157d97160c01b611600565b60035460045461091d9190611fb3565b905090565b60008061093967aab687d69927d29d60c01b611600565b610941611603565b61095567b27e84341586180360c01b611600565b610969672f8bf35e258bf1e360c01b611600565b61097d676812d3aa5912318e60c01b611600565b610991670205ed9868928db060c01b611600565b6109a56706cb56ce6eff387560c01b611600565b600083116109e8576040517f08c379a00000000000000000000000000000000000000000000000000000000081526004016109df90612030565b60405180910390fd5b6109fc67348fcccdf5e31bef60c01b611600565b610a10678a5f0c37b2a3fa8f60c01b611600565b610a2467bf9ca274f8c160d760c01b611600565b610a3867cb98078c699b9fd960c01b611600565b82600660003373ffffffffffffffffffffffffffffffffffffffff1673ffffffffffffffffffffffffffffffffffffffff168152602001908152602001600020541015610aba576040517f08c379a0000000000000000000000000000000000000000000000000000000008152600401610ab19061209c565b60405180910390fd5b610ace6760c50211bf1342cd60c01b611600565b610ae26763c7be7e21d9ff7660c01b611600565b60055460035484610af39190611f42565b610afd9190611fb3565b9150610b1367a3f6e91905fb296460c01b611600565b60055460045484610b249190611f42565b610b2e9190611fb3565b9050610b446709f93a27085099c460c01b611600565b82600660003373ffffffffffffffffffffffffffffffffffffffff1673ffffffffffffffffffffffffffffffffffffffff1681526020019081526020016000206000828254610b939190611e25565b92505081905550610bae6753e2d0e5fe1e287160c01b611600565b8260056000828254610bc09190611e25565b92505081905550610bdb67b517114da1462b2560c01b611600565b8160036000828254610bed9190611e25565b92505081905550610c08671afbb9b317ee1fe660c01b611600565b8060046000828254610c1a9190611e25565b92505081905550610c35675fd550124c3083fe60c01b611600565b610c4866e86e4fa9e06be660c01b611600565b610c953383600160009054906101000a900473ffffffffffffffffffffffffffffffffffffffff1673ffffffffffffffffffffffffffffffffffffffff166116db9092919063ffffffff16565b610ca9674a452febc99fab6e60c01b611600565b610cbd6762581e5f9f445eca60c01b611600565b610d0a3382600260009054906101000a900473ffffffffffffffffffffffffffffffffffffffff1673ffffffffffffffffffffffffffffffffffffffff166116db9092919063ffffffff16565b610d1d66f17dc7de4d653b60c01b611600565b610d3167608a9ba0d05a36a360c01b611600565b3373ffffffffffffffffffffffffffffffffffffffff167f1dc8bb69df2b8e91fbdcbfcf93d951b3f0000f085a95fe3f7946d6161439245d838386604051610d7b939291906120bc565b60405180910390a2610d8b611761565b915091565b6000610da6674fd7bb851999ef1860c01b611600565b610dae611603565b610dc267ccdbaa58fbd707a060c01b611600565b610dd66747fd82eea3e8e2bc60c01b611600565b610dea677725df995bb2140d60c01b611600565b610dfe67b60df91049f9d98460c01b611600565b610e12678a2fea300585ddaf60c01b611600565b600083118015610e225750600082115b610e61576040517f08c379a0000000000000000000000000000000000000000000000000000000008152600401610e589061213f565b60405180910390fd5b610e7567797680eab0d2935a60c01b611600565b610e896785fd3f9c7afcf98260c01b611600565b610e9d67504e9a73d6f1612260c01b611600565b610eec333085600160009054906101000a900473ffffffffffffffffffffffffffffffffffffffff1673ffffffffffffffffffffffffffffffffffffffff16611652909392919063ffffffff16565b610f0067a1f197d92889f86160c01b611600565b610f146707ea5def5b3a4f7960c01b611600565b610f63333084600260009054906101000a900473ffffffffffffffffffffffffffffffffffffffff1673ffffffffffffffffffffffffffffffffffffffff16611652909392919063ffffffff16565b610f7767aad70076c195f5e160c01b611600565b610f8b67da8771bd9241996e60c01b611600565b6000600554036110a157610fa9676ffd78fef64a1f6960c01b611600565b610fbd67609a7a8e393c82ff60c01b611600565b610fd18284610fcc9190611f42565b61176b565b9050610fe76783aa11b5c109ea3760c01b611600565b610ffb67253578a76622ba0d60c01b611600565b61100f67f8b7c1ec400072e560c01b611600565b60008111611052576040517f08c379a000000000000000000000000000000000000000000000000000000000815260040161104990612030565b60405180910390fd5b6110666786e4cb6b0031c3e160c01b611600565b61107a675471ef3207d988b860c01b611600565b8260038190555061109567ecdf46c5c7cb9e2b60c01b611600565b8160048190555061121b565b6110b56732e11753c0fef0d960c01b611600565b6110c967fbe8bef10071925360c01b611600565b6110dd672897463866f52f9260c01b611600565b6000600354600454856110f09190611f42565b6110fa9190611fb3565b905061111067d1b876c7b9ad8f7860c01b611600565b611124678988ff66b27e1ffe60c01b611600565b61113867ab7dd7d86132446860c01b611600565b80831461117a576040517f08c379a0000000000000000000000000000000000000000000000000000000008152600401611171906121ab565b60405180910390fd5b61118e67cd1b9915bdda306360c01b611600565b6111a2677f95eb80cf75835260c01b611600565b600354600554856111b39190611f42565b6111bd9190611fb3565b91506111d367fed106ca89cd01d360c01b611600565b83600360008282546111e59190611df1565b92505081905550611200671aeb314cfcf5f1e360c01b611600565b82600460008282546112129190611df1565b92505081905550505b61122f67883e8d9e704bd4b460c01b611600565b80600560008282546112419190611df1565b9250508190555061125c671e2ddedca7d08f6f60c01b611600565b80600660003373ffffffffffffffffffffffffffffffffffffffff1673ffffffffffffffffffffffffffffffffffffffff16815260200190815260200160002060008282546112ab9190611df1565b925050819055506112c6672df6ea001c2c673260c01b611600565b6112da675d4c44fbc792c19460c01b611600565b3373ffffffffffffffffffffffffffffffffffffffff167f64b83944e79c3ce8d4c297411de637c3e102d064677aac0c163976ebdcd6f50e848484604051611324939291906120bc565b60405180910390a2611334611761565b92915050565b60066020528060005260406000206000915090505481565b60035481565b600061136e673ffca76477c5631560c01b611600565b611376611603565b61138a67066c0e17f770550c60c01b611600565b61139e67adb58cb032993f6560c01b611600565b6113b2671beced2b43ab1ee460c01b611600565b6113c182600454600354610570565b90506113d76785c106fb572b362160c01b611600565b6113eb67fd751de5660b754f60c01b611600565b61143a333084600260009054906101000a900473ffffffffffffffffffffffffffffffffffffffff1673ffffffffffffffffffffffffffffffffffffffff16611652909392919063ffffffff16565b61144e67bce905d3d986821560c01b611600565b61146267b76741278ae68e7060c01b611600565b6114af3382600160009054906101000a900473ffffffffffffffffffffffffffffffffffffffff1673ffffffffffffffffffffffffffffffffffffffff166116db9092919063ffffffff16565b6114c3671f93820476d3f89f60c01b611600565b81600460008282546114d59190611df1565b925050819055506114f0674793231edad212cf60c01b611600565b80600360008282546115029190611e25565b9250508190555061151d67df48d36dc46a60cb60c01b611600565b61153167b5751d211458857960c01b611600565b600160009054906101000a900473ffffffffffffffffffffffffffffffffffffffff1673ffffffffffffffffffffffffffffffffffffffff16600260009054906101000a900473ffffffffffffffffffffffffffffffffffffffff1673ffffffffffffffffffffffffffffffffffffffff163373ffffffffffffffffffffffffffffffffffffffff167fcd3829a3813dc3cdd188fd3d01dcf3268c16be2fdd2dd21d0665418816e4606285856040516115eb929190611ca4565b60405180910390a46115fb611761565b919050565b50565b600260005403611648576040517f08c379a000000000000000000000000000000000000000000000000000000000815260040161163f90612217565b60405180910390fd5b6002600081905550565b6116d5846323b872dd60e01b85858560405160240161167393929190612237565b604051602081830303815290604052907bffffffffffffffffffffffffffffffffffffffffffffffffffffffff19166020820180517bffffffffffffffffffffffffffffffffffffffffffffffffffffffff838183161783525050505061192a565b50505050565b61175c8363a9059cbb60e01b84846040516024016116fa92919061226e565b604051602081830303815290604052907bffffffffffffffffffffffffffffffffffffffffffffffffffffffff19166020820180517bffffffffffffffffffffffffffffffffffffffffffffffffffffffff838183161783525050505061192a565b505050565b6001600081905550565b60006117816709c5e3f141a5414060c01b611600565b61179567c57c62822ce8735e60c01b611600565b6117a96768e0dcaf2209bd3260c01b611600565b60038211156118ae576117c6675211de116b8ace3060c01b611600565b6117da6736e434ec7e1080ac60c01b611600565b8190506117f167383ea8b3463c53d760c01b611600565b6118056723de50e2367edc8b60c01b611600565b600060016002846118169190611fb3565b6118209190611df1565b9050611836679d49e572bbf8f74060c01b611600565b61184a67c08488370c4c61d460c01b611600565b5b818110156118a857611867674ef366d251689b0560c01b611600565b80915061187e67e4725307c122627860c01b611600565b600281828561188d9190611fb3565b6118979190611df1565b6118a19190611fb3565b905061184b565b50611925565b6118c2674e198db302260c7560c01b611600565b6118d667330e18e8489c545e60c01b611600565b6000821461190f576118f26762b9d595eb09f23260c01b611600565b611906674a346fab76c7ac1f60c01b611600565b60019050611924565b61192367520e24a6206ce8ba60c01b611600565b5b5b919050565b600061198c826040518060400160405280602081526020017f5361666545524332303a206c6f772d6c6576656c2063616c6c206661696c65648152508573ffffffffffffffffffffffffffffffffffffffff166119f29092919063ffffffff16565b90506000815114806119ae5750808060200190518101906119ad91906122cf565b5b6119ed576040517f08c379a00000000000000000000000000000000000000000000000000000000081526004016119e49061236e565b60405180910390fd5b505050565b6060611a018484600085611a0a565b90509392505050565b606082471015611a4f576040517f08c379a0000000000000000000000000000000000000000000000000000000008152600401611a4690612400565b60405180910390fd5b6000808673ffffffffffffffffffffffffffffffffffffffff168587604051611a789190612491565b60006040518083038185875af1925050503d8060008114611ab5576040519150601f19603f3d011682016040523d82523d6000602084013e611aba565b606091505b5091509150611acb87838387611ad7565b92505050949350505050565b60608315611b39576000835103611b3157611af185611b4c565b611b30576040517f08c379a0000000000000000000000000000000000000000000000000000000008152600401611b27906124f4565b60405180910390fd5b5b829050611b44565b611b438383611b6f565b5b949350505050565b6000808273ffffffffffffffffffffffffffffffffffffffff163b119050919050565b600082511115611b825781518083602001fd5b806040517f08c379a0000000000000000000000000000000000000000000000000000000008152600401611bb69190612569565b60405180910390fd5b600080fd5b6000819050919050565b611bd781611bc4565b8114611be257600080fd5b50565b600081359050611bf481611bce565b92915050565b600060208284031215611c1057611c0f611bbf565b5b6000611c1e84828501611be5565b91505092915050565b611c3081611bc4565b82525050565b6000602082019050611c4b6000830184611c27565b92915050565b600080600060608486031215611c6a57611c69611bbf565b5b6000611c7886828701611be5565b9350506020611c8986828701611be5565b9250506040611c9a86828701611be5565b9150509250925092565b6000604082019050611cb96000830185611c27565b611cc66020830184611c27565b9392505050565b600073ffffffffffffffffffffffffffffffffffffffff82169050919050565b6000611cf882611ccd565b9050919050565b611d0881611ced565b82525050565b6000602082019050611d236000830184611cff565b92915050565b60008060408385031215611d4057611d3f611bbf565b5b6000611d4e85828601611be5565b9250506020611d5f85828601611be5565b9150509250929050565b611d7281611ced565b8114611d7d57600080fd5b50565b600081359050611d8f81611d69565b92915050565b600060208284031215611dab57611daa611bbf565b5b6000611db984828501611d80565b91505092915050565b7f4e487b7100000000000000000000000000000000000000000000000000000000600052601160045260246000fd5b6000611dfc82611bc4565b9150611e0783611bc4565b9250828201905080821115611e1f57611e1e611dc2565b5b92915050565b6000611e3082611bc4565b9150611e3b83611bc4565b9250828203905081811115611e5357611e52611dc2565b5b92915050565b600082825260208201905092915050565b7f5a65726f20696e70757400000000000000000000000000000000000000000000600082015250565b6000611ea0600a83611e59565b9150611eab82611e6a565b602082019050919050565b60006020820190508181036000830152611ecf81611e93565b9050919050565b7f4e6f206c69717569646974790000000000000000000000000000000000000000600082015250565b6000611f0c600c83611e59565b9150611f1782611ed6565b602082019050919050565b60006020820190508181036000830152611f3b81611eff565b9050919050565b6000611f4d82611bc4565b9150611f5883611bc4565b9250828202611f6681611bc4565b91508282048414831517611f7d57611f7c611dc2565b5b5092915050565b7f4e487b7100000000000000000000000000000000000000000000000000000000600052601260045260246000fd5b6000611fbe82611bc4565b9150611fc983611bc4565b925082611fd957611fd8611f84565b5b828204905092915050565b7f5a65726f206c6971756964697479000000000000000000000000000000000000600082015250565b600061201a600e83611e59565b915061202582611fe4565b602082019050919050565b600060208201905081810360008301526120498161200d565b9050919050565b7f4e6f7420656e6f756768206c6971756964697479000000000000000000000000600082015250565b6000612086601483611e59565b915061209182612050565b602082019050919050565b600060208201905081810360008301526120b581612079565b9050919050565b60006060820190506120d16000830186611c27565b6120de6020830185611c27565b6120eb6040830184611c27565b949350505050565b7f5a65726f20616d6f756e74000000000000000000000000000000000000000000600082015250565b6000612129600b83611e59565b9150612134826120f3565b602082019050919050565b600060208201905081810360008301526121588161211c565b9050919050565b7f526174696f206d69736d61746368000000000000000000000000000000000000600082015250565b6000612195600e83611e59565b91506121a08261215f565b602082019050919050565b600060208201905081810360008301526121c481612188565b9050919050565b7f5265656e7472616e637947756172643a207265656e7472616e742063616c6c00600082015250565b6000612201601f83611e59565b915061220c826121cb565b602082019050919050565b60006020820190508181036000830152612230816121f4565b9050919050565b600060608201905061224c6000830186611cff565b6122596020830185611cff565b6122666040830184611c27565b949350505050565b60006040820190506122836000830185611cff565b6122906020830184611c27565b9392505050565b60008115159050919050565b6122ac81612297565b81146122b757600080fd5b50565b6000815190506122c9816122a3565b92915050565b6000602082840312156122e5576122e4611bbf565b5b60006122f3848285016122ba565b91505092915050565b7f5361666545524332303a204552433230206f7065726174696f6e20646964206e60008201527f6f74207375636365656400000000000000000000000000000000000000000000602082015250565b6000612358602a83611e59565b9150612363826122fc565b604082019050919050565b600060208201905081810360008301526123878161234b565b9050919050565b7f416464726573733a20696e73756666696369656e742062616c616e636520666f60008201527f722063616c6c0000000000000000000000000000000000000000000000000000602082015250565b60006123ea602683611e59565b91506123f58261238e565b604082019050919050565b60006020820190508181036000830152612419816123dd565b9050919050565b600081519050919050565b600081905092915050565b60005b83811015612454578082015181840152602081019050612439565b60008484015250505050565b600061246b82612420565b612475818561242b565b9350612485818560208601612436565b80840191505092915050565b600061249d8284612460565b915081905092915050565b7f416464726573733a2063616c6c20746f206e6f6e2d636f6e7472616374000000600082015250565b60006124de601d83611e59565b91506124e9826124a8565b602082019050919050565b6000602082019050818103600083015261250d816124d1565b9050919050565b600081519050919050565b6000601f19601f8301169050919050565b600061253b82612514565b6125458185611e59565b9350612555818560208601612436565b61255e8161251f565b840191505092915050565b600060208201905081810360008301526125838184612530565b90509291505056fea264697066735822122014f7689dc49c99dc4a16f3545589a7396c229c2966e3caefc4ea616f1005cc7364736f6c63430008130033",
  "linkReferences": {},
  "deployedLinkReferences": {}
}